{
  "_format": "hh-sol-artifact-1",
  "contractName": "WavePortal",
  "sourceName": "contracts/WavePortal.sol",
  "abi": [
    {
      "inputs": [],
      "stateMutability": "payable",
      "type": "constructor"
    },
    {
      "anonymous": false,
      "inputs": [
        {
          "indexed": true,
          "internalType": "address",
          "name": "from",
          "type": "address"
        },
        {
          "indexed": false,
          "internalType": "uint256",
          "name": "timestamp",
          "type": "uint256"
        },
        {
          "indexed": false,
          "internalType": "string",
          "name": "message",
          "type": "string"
        }
      ],
      "name": "NewWave",
      "type": "event"
    },
    {
      "anonymous": false,
      "inputs": [
        {
          "indexed": true,
          "internalType": "address",
          "name": "to",
          "type": "address"
        },
        {
          "indexed": false,
          "internalType": "uint256",
          "name": "timestamp",
          "type": "uint256"
        },
        {
          "indexed": false,
          "internalType": "uint256",
          "name": "prize",
          "type": "uint256"
        }
      ],
      "name": "PrizeAwarded",
      "type": "event"
    },
    {
      "inputs": [],
      "name": "drain",
      "outputs": [],
      "stateMutability": "nonpayable",
      "type": "function"
    },
    {
      "inputs": [],
      "name": "getAllWaves",
      "outputs": [
        {
          "components": [
            {
              "internalType": "address",
              "name": "waver",
              "type": "address"
            },
            {
              "internalType": "string",
              "name": "message",
              "type": "string"
            },
            {
              "internalType": "uint256",
              "name": "timestamp",
              "type": "uint256"
            }
          ],
          "internalType": "struct WavePortal.Wave[]",
          "name": "",
          "type": "tuple[]"
        }
      ],
      "stateMutability": "view",
      "type": "function"
    },
    {
      "inputs": [],
      "name": "getTotalWaves",
      "outputs": [
        {
          "internalType": "uint256",
          "name": "",
          "type": "uint256"
        }
      ],
      "stateMutability": "view",
      "type": "function"
    },
    {
      "inputs": [
        {
          "internalType": "address",
          "name": "",
          "type": "address"
        }
      ],
      "name": "lastWaveAt",
      "outputs": [
        {
          "internalType": "uint256",
          "name": "",
          "type": "uint256"
        }
      ],
      "stateMutability": "view",
      "type": "function"
    },
    {
      "inputs": [
        {
          "internalType": "string",
          "name": "_message",
          "type": "string"
        }
      ],
      "name": "wave",
      "outputs": [],
      "stateMutability": "nonpayable",
      "type": "function"
    }
  ],
  "bytecode": "0x60806040526200003360405180606001604052806025815260200162001714602591396200009c60201b6200065b1760201c565b33600260006101000a81548173ffffffffffffffffffffffffffffffffffffffff021916908373ffffffffffffffffffffffffffffffffffffffff16021790555060644244620000849190620001e9565b62000090919062000286565b6003819055506200032d565b6200013c81604051602401620000b39190620001a9565b6040516020818303038152906040527f41304fac000000000000000000000000000000000000000000000000000000007bffffffffffffffffffffffffffffffffffffffffffffffffffffffff19166020820180517bffffffffffffffffffffffffffffffffffffffffffffffffffffffff83818316178352505050506200013f60201b60201c565b50565b60008151905060006a636f6e736f6c652e6c6f679050602083016000808483855afa5050505050565b60006200017582620001cd565b620001818185620001d8565b93506200019381856020860162000250565b6200019e816200031c565b840191505092915050565b60006020820190508181036000830152620001c5818462000168565b905092915050565b600081519050919050565b600082825260208201905092915050565b6000620001f68262000246565b9150620002038362000246565b9250827fffffffffffffffffffffffffffffffffffffffffffffffffffffffffffffffff038211156200023b576200023a620002be565b5b828201905092915050565b6000819050919050565b60005b838110156200027057808201518184015260208101905062000253565b8381111562000280576000848401525b50505050565b6000620002938262000246565b9150620002a08362000246565b925082620002b357620002b2620002ed565b5b828206905092915050565b7f4e487b7100000000000000000000000000000000000000000000000000000000600052601160045260246000fd5b7f4e487b7100000000000000000000000000000000000000000000000000000000600052601260045260246000fd5b6000601f19601f8301169050919050565b6113d7806200033d6000396000f3fe608060405234801561001057600080fd5b50600436106100575760003560e01c8063449d46c01461005c5780639890220b146100785780639a2cdc0814610082578063bd43a908146100a0578063cb199503146100be575b600080fd5b61007660048036038101906100719190610bd6565b6100ee565b005b6100806103ac565b005b61008a6104a7565b6040516100979190610f5e565b60405180910390f35b6100a86104f2565b6040516100b59190610e07565b60405180910390f35b6100d860048036038101906100d39190610bad565b610643565b6040516100e59190610f5e565b60405180910390f35b600260009054906101000a900473ffffffffffffffffffffffffffffffffffffffff1673ffffffffffffffffffffffffffffffffffffffff163373ffffffffffffffffffffffffffffffffffffffff161480610195575042610384600460003373ffffffffffffffffffffffffffffffffffffffff1673ffffffffffffffffffffffffffffffffffffffff16815260200190815260200160002054610193919061108e565b105b6101d4576040517f08c379a00000000000000000000000000000000000000000000000000000000081526004016101cb90610f3e565b60405180910390fd5b42600460003373ffffffffffffffffffffffffffffffffffffffff1673ffffffffffffffffffffffffffffffffffffffff16815260200190815260200160002081905550600160008082825461022a919061108e565b92505081905550600160405180606001604052803373ffffffffffffffffffffffffffffffffffffffff16815260200183815260200142815250908060018154018082558091505060019003906000526020600020906003020160009091909190915060008201518160000160006101000a81548173ffffffffffffffffffffffffffffffffffffffff021916908373ffffffffffffffffffffffffffffffffffffffff16021790555060208201518160010190805190602001906102f0929190610a8d565b5060408201518160020155505061033d6040518060400160405280601d81526020017f25732068617320776176656420772f206d65737361676520222573222100000081525033836106f4565b3373ffffffffffffffffffffffffffffffffffffffff167f5f7e16dc676677766a70e9c5628aa6c54ddb8b6e5188e2ae1e1f17f1ffbea7164283604051610385929190610f79565b60405180910390a2610395610793565b603260035410156103a9576103a8610801565b5b50565b600260009054906101000a900473ffffffffffffffffffffffffffffffffffffffff1673ffffffffffffffffffffffffffffffffffffffff163373ffffffffffffffffffffffffffffffffffffffff161461043c576040517f08c379a000000000000000000000000000000000000000000000000000000000815260040161043390610efe565b60405180910390fd5b600260009054906101000a900473ffffffffffffffffffffffffffffffffffffffff1673ffffffffffffffffffffffffffffffffffffffff166108fc479081150290604051600060405180830381858888f193505050501580156104a4573d6000803e3d6000fd5b50565b60006104ea6040518060400160405280601781526020017f5765206861766520256420746f74616c20776176657321000000000000000000815250600054610929565b600054905090565b60606001805480602002602001604051908101604052809291908181526020016000905b8282101561063a57838290600052602060002090600302016040518060600160405290816000820160009054906101000a900473ffffffffffffffffffffffffffffffffffffffff1673ffffffffffffffffffffffffffffffffffffffff1673ffffffffffffffffffffffffffffffffffffffff16815260200160018201805461059f90611162565b80601f01602080910402602001604051908101604052809291908181526020018280546105cb90611162565b80156106185780601f106105ed57610100808354040283529160200191610618565b820191906000526020600020905b8154815290600101906020018083116105fb57829003601f168201915b5050505050815260200160028201548152505081526020019060010190610516565b50505050905090565b60046020528060005260406000206000915090505481565b6106f18160405160240161066f9190610e29565b6040516020818303038152906040527f41304fac000000000000000000000000000000000000000000000000000000007bffffffffffffffffffffffffffffffffffffffffffffffffffffffff19166020820180517bffffffffffffffffffffffffffffffffffffffffffffffffffffffff83818316178352505050506109c5565b50565b61078e83838360405160240161070c93929190610e4b565b6040516020818303038152906040527fe0e9ad4f000000000000000000000000000000000000000000000000000000007bffffffffffffffffffffffffffffffffffffffffffffffffffffffff19166020820180517bffffffffffffffffffffffffffffffffffffffffffffffffffffffff83818316178352505050506109c5565b505050565b606460035442446107a4919061108e565b6107ae919061108e565b6107b891906111c5565b6003819055506107ff6040518060400160405280601281526020017f4e657720736565642076616c75653a2025640000000000000000000000000000815250600354610929565b565b6000655af3107a400090504781111561084f576040517f08c379a000000000000000000000000000000000000000000000000000000000815260040161084690610f1e565b60405180910390fd5b3373ffffffffffffffffffffffffffffffffffffffff166108fc829081150290604051600060405180830381858888f19350505050158015610895573d6000803e3d6000fd5b506108d66040518060400160405280601681526020017f256420776173206a7573742073656e7420746f2025730000000000000000000081525082336109ee565b3373ffffffffffffffffffffffffffffffffffffffff167f6f9308aa95332a91bbabfc4240bf8dec1717e3f764b88cb4753c9fad44ef69d8428360405161091e929190610fa9565b60405180910390a250565b6109c1828260405160240161093f929190610e90565b6040516020818303038152906040527f9710a9d0000000000000000000000000000000000000000000000000000000007bffffffffffffffffffffffffffffffffffffffffffffffffffffffff19166020820180517bffffffffffffffffffffffffffffffffffffffffffffffffffffffff83818316178352505050506109c5565b5050565b60008151905060006a636f6e736f6c652e6c6f679050602083016000808483855afa5050505050565b610a88838383604051602401610a0693929190610ec0565b6040516020818303038152906040527fe3849f79000000000000000000000000000000000000000000000000000000007bffffffffffffffffffffffffffffffffffffffffffffffffffffffff19166020820180517bffffffffffffffffffffffffffffffffffffffffffffffffffffffff83818316178352505050506109c5565b505050565b828054610a9990611162565b90600052602060002090601f016020900481019282610abb5760008555610b02565b82601f10610ad457805160ff1916838001178555610b02565b82800160010185558215610b02579182015b82811115610b01578251825591602001919060010190610ae6565b5b509050610b0f9190610b13565b5090565b5b80821115610b2c576000816000905550600101610b14565b5090565b6000610b43610b3e84610ff7565b610fd2565b905082815260208101848484011115610b5b57600080fd5b610b66848285611120565b509392505050565b600081359050610b7d8161138a565b92915050565b600082601f830112610b9457600080fd5b8135610ba4848260208601610b30565b91505092915050565b600060208284031215610bbf57600080fd5b6000610bcd84828501610b6e565b91505092915050565b600060208284031215610be857600080fd5b600082013567ffffffffffffffff811115610c0257600080fd5b610c0e84828501610b83565b91505092915050565b6000610c238383610d99565b905092915050565b610c34816110e4565b82525050565b610c43816110e4565b82525050565b6000610c5482611038565b610c5e818561105b565b935083602082028501610c7085611028565b8060005b85811015610cac5784840389528151610c8d8582610c17565b9450610c988361104e565b925060208a01995050600181019050610c74565b50829750879550505050505092915050565b6000610cc982611043565b610cd3818561106c565b9350610ce381856020860161112f565b610cec816112b2565b840191505092915050565b6000610d0282611043565b610d0c818561107d565b9350610d1c81856020860161112f565b610d25816112b2565b840191505092915050565b6000610d3d60268361107d565b9150610d48826112c3565b604082019050919050565b6000610d6060248361107d565b9150610d6b82611312565b604082019050919050565b6000610d83600f8361107d565b9150610d8e82611361565b602082019050919050565b6000606083016000830151610db16000860182610c2b565b5060208301518482036020860152610dc98282610cbe565b9150506040830151610dde6040860182610de9565b508091505092915050565b610df281611116565b82525050565b610e0181611116565b82525050565b60006020820190508181036000830152610e218184610c49565b905092915050565b60006020820190508181036000830152610e438184610cf7565b905092915050565b60006060820190508181036000830152610e658186610cf7565b9050610e746020830185610c3a565b8181036040830152610e868184610cf7565b9050949350505050565b60006040820190508181036000830152610eaa8185610cf7565b9050610eb96020830184610df8565b9392505050565b60006060820190508181036000830152610eda8186610cf7565b9050610ee96020830185610df8565b610ef66040830184610c3a565b949350505050565b60006020820190508181036000830152610f1781610d30565b9050919050565b60006020820190508181036000830152610f3781610d53565b9050919050565b60006020820190508181036000830152610f5781610d76565b9050919050565b6000602082019050610f736000830184610df8565b92915050565b6000604082019050610f8e6000830185610df8565b8181036020830152610fa08184610cf7565b90509392505050565b6000604082019050610fbe6000830185610df8565b610fcb6020830184610df8565b9392505050565b6000610fdc610fed565b9050610fe88282611194565b919050565b6000604051905090565b600067ffffffffffffffff82111561101257611011611283565b5b61101b826112b2565b9050602081019050919050565b6000819050602082019050919050565b600081519050919050565b600081519050919050565b6000602082019050919050565b600082825260208201905092915050565b600082825260208201905092915050565b600082825260208201905092915050565b600061109982611116565b91506110a483611116565b9250827fffffffffffffffffffffffffffffffffffffffffffffffffffffffffffffffff038211156110d9576110d86111f6565b5b828201905092915050565b60006110ef826110f6565b9050919050565b600073ffffffffffffffffffffffffffffffffffffffff82169050919050565b6000819050919050565b82818337600083830152505050565b60005b8381101561114d578082015181840152602081019050611132565b8381111561115c576000848401525b50505050565b6000600282049050600182168061117a57607f821691505b6020821081141561118e5761118d611254565b5b50919050565b61119d826112b2565b810181811067ffffffffffffffff821117156111bc576111bb611283565b5b80604052505050565b60006111d082611116565b91506111db83611116565b9250826111eb576111ea611225565b5b828206905092915050565b7f4e487b7100000000000000000000000000000000000000000000000000000000600052601160045260246000fd5b7f4e487b7100000000000000000000000000000000000000000000000000000000600052601260045260246000fd5b7f4e487b7100000000000000000000000000000000000000000000000000000000600052602260045260246000fd5b7f4e487b7100000000000000000000000000000000000000000000000000000000600052604160045260246000fd5b6000601f19601f8301169050919050565b7f4f6e6c7920746865206f776e65722063616e20647261696e207468697320636f60008201527f6e74726163740000000000000000000000000000000000000000000000000000602082015250565b7f436f6e747261637420646f6573206e6f74206861766520656e6f75676820667560008201527f6e64732100000000000000000000000000000000000000000000000000000000602082015250565b7f57616974203135206d696e757465730000000000000000000000000000000000600082015250565b611393816110e4565b811461139e57600080fd5b5056fea2646970667358221220d2f5b6b75ab1d445bea3c2325852c95f577790bf5b27d245b40181f78af6470f64736f6c63430008040033596f20796f2c204920616d206120636f6e747261637420616e64204920616d20736d617274",
  "linkReferences": {},
  "deployedLinkReferences": {}
}