{
  "_format": "hh-sol-artifact-1",
  "contractName": "MyEpicNFT",
  "sourceName": "contracts/MyEpicNFT.sol",
  "abi": [
    {
      "inputs": [],
      "stateMutability": "nonpayable",
      "type": "constructor"
    },
    {
      "anonymous": false,
      "inputs": [
        {
          "indexed": true,
          "internalType": "address",
          "name": "owner",
          "type": "address"
        },
        {
          "indexed": true,
          "internalType": "address",
          "name": "approved",
          "type": "address"
        },
        {
          "indexed": true,
          "internalType": "uint256",
          "name": "tokenId",
          "type": "uint256"
        }
      ],
      "name": "Approval",
      "type": "event"
    },
    {
      "anonymous": false,
      "inputs": [
        {
          "indexed": true,
          "internalType": "address",
          "name": "owner",
          "type": "address"
        },
        {
          "indexed": true,
          "internalType": "address",
          "name": "operator",
          "type": "address"
        },
        {
          "indexed": false,
          "internalType": "bool",
          "name": "approved",
          "type": "bool"
        }
      ],
      "name": "ApprovalForAll",
      "type": "event"
    },
    {
      "anonymous": false,
      "inputs": [
        {
          "indexed": false,
          "internalType": "address",
          "name": "sender",
          "type": "address"
        },
        {
          "indexed": false,
          "internalType": "uint256",
          "name": "tokenId",
          "type": "uint256"
        },
        {
          "indexed": false,
          "internalType": "string",
          "name": "name",
          "type": "string"
        },
        {
          "indexed": false,
          "internalType": "uint256",
          "name": "timestamp",
          "type": "uint256"
        }
      ],
      "name": "NewEpicNFTMinted",
      "type": "event"
    },
    {
      "anonymous": false,
      "inputs": [
        {
          "indexed": true,
          "internalType": "address",
          "name": "from",
          "type": "address"
        },
        {
          "indexed": true,
          "internalType": "address",
          "name": "to",
          "type": "address"
        },
        {
          "indexed": true,
          "internalType": "uint256",
          "name": "tokenId",
          "type": "uint256"
        }
      ],
      "name": "Transfer",
      "type": "event"
    },
    {
      "inputs": [],
      "name": "MAX_TOKENS",
      "outputs": [
        {
          "internalType": "uint256",
          "name": "",
          "type": "uint256"
        }
      ],
      "stateMutability": "view",
      "type": "function"
    },
    {
      "inputs": [
        {
          "internalType": "address",
          "name": "to",
          "type": "address"
        },
        {
          "internalType": "uint256",
          "name": "tokenId",
          "type": "uint256"
        }
      ],
      "name": "approve",
      "outputs": [],
      "stateMutability": "nonpayable",
      "type": "function"
    },
    {
      "inputs": [
        {
          "internalType": "address",
          "name": "owner",
          "type": "address"
        }
      ],
      "name": "balanceOf",
      "outputs": [
        {
          "internalType": "uint256",
          "name": "",
          "type": "uint256"
        }
      ],
      "stateMutability": "view",
      "type": "function"
    },
    {
      "inputs": [
        {
          "internalType": "uint256",
          "name": "tokenId",
          "type": "uint256"
        }
      ],
      "name": "getApproved",
      "outputs": [
        {
          "internalType": "address",
          "name": "",
          "type": "address"
        }
      ],
      "stateMutability": "view",
      "type": "function"
    },
    {
      "inputs": [
        {
          "internalType": "address",
          "name": "owner",
          "type": "address"
        },
        {
          "internalType": "address",
          "name": "operator",
          "type": "address"
        }
      ],
      "name": "isApprovedForAll",
      "outputs": [
        {
          "internalType": "bool",
          "name": "",
          "type": "bool"
        }
      ],
      "stateMutability": "view",
      "type": "function"
    },
    {
      "inputs": [],
      "name": "makeAnEpicNFT",
      "outputs": [],
      "stateMutability": "nonpayable",
      "type": "function"
    },
    {
      "inputs": [],
      "name": "name",
      "outputs": [
        {
          "internalType": "string",
          "name": "",
          "type": "string"
        }
      ],
      "stateMutability": "view",
      "type": "function"
    },
    {
      "inputs": [
        {
          "internalType": "uint256",
          "name": "tokenId",
          "type": "uint256"
        }
      ],
      "name": "ownerOf",
      "outputs": [
        {
          "internalType": "address",
          "name": "",
          "type": "address"
        }
      ],
      "stateMutability": "view",
      "type": "function"
    },
    {
      "inputs": [
        {
          "internalType": "address",
          "name": "from",
          "type": "address"
        },
        {
          "internalType": "address",
          "name": "to",
          "type": "address"
        },
        {
          "internalType": "uint256",
          "name": "tokenId",
          "type": "uint256"
        }
      ],
      "name": "safeTransferFrom",
      "outputs": [],
      "stateMutability": "nonpayable",
      "type": "function"
    },
    {
      "inputs": [
        {
          "internalType": "address",
          "name": "from",
          "type": "address"
        },
        {
          "internalType": "address",
          "name": "to",
          "type": "address"
        },
        {
          "internalType": "uint256",
          "name": "tokenId",
          "type": "uint256"
        },
        {
          "internalType": "bytes",
          "name": "_data",
          "type": "bytes"
        }
      ],
      "name": "safeTransferFrom",
      "outputs": [],
      "stateMutability": "nonpayable",
      "type": "function"
    },
    {
      "inputs": [
        {
          "internalType": "address",
          "name": "operator",
          "type": "address"
        },
        {
          "internalType": "bool",
          "name": "approved",
          "type": "bool"
        }
      ],
      "name": "setApprovalForAll",
      "outputs": [],
      "stateMutability": "nonpayable",
      "type": "function"
    },
    {
      "inputs": [
        {
          "internalType": "bytes4",
          "name": "interfaceId",
          "type": "bytes4"
        }
      ],
      "name": "supportsInterface",
      "outputs": [
        {
          "internalType": "bool",
          "name": "",
          "type": "bool"
        }
      ],
      "stateMutability": "view",
      "type": "function"
    },
    {
      "inputs": [],
      "name": "symbol",
      "outputs": [
        {
          "internalType": "string",
          "name": "",
          "type": "string"
        }
      ],
      "stateMutability": "view",
      "type": "function"
    },
    {
      "inputs": [
        {
          "internalType": "uint256",
          "name": "tokenId",
          "type": "uint256"
        }
      ],
      "name": "tokenURI",
      "outputs": [
        {
          "internalType": "string",
          "name": "",
          "type": "string"
        }
      ],
      "stateMutability": "view",
      "type": "function"
    },
    {
      "inputs": [],
      "name": "totalSupply",
      "outputs": [
        {
          "internalType": "uint256",
          "name": "",
          "type": "uint256"
        }
      ],
      "stateMutability": "view",
      "type": "function"
    },
    {
      "inputs": [
        {
          "internalType": "address",
          "name": "from",
          "type": "address"
        },
        {
          "internalType": "address",
          "name": "to",
          "type": "address"
        },
        {
          "internalType": "uint256",
          "name": "tokenId",
          "type": "uint256"
        }
      ],
      "name": "transferFrom",
      "outputs": [],
      "stateMutability": "nonpayable",
      "type": "function"
    }
  ],
  "bytecode": "0x608060405260405180610160016040528061012f81526020016200528d61012f913960089080519060200190620000389291906200170b565b506040518060600160405280604051806103c001604052806040518060400160405280600781526020017f52656275696c640000000000000000000000000000000000000000000000000081525081526020016040518060400160405280600481526020017f57696e640000000000000000000000000000000000000000000000000000000081525081526020016040518060400160405280600681526020017f46756c66696c000000000000000000000000000000000000000000000000000081525081526020016040518060400160405280600581526020017f576174636800000000000000000000000000000000000000000000000000000081525081526020016040518060400160405280600581526020017f436c6f736500000000000000000000000000000000000000000000000000000081525081526020016040518060400160405280600981526020017f43616c63756c617465000000000000000000000000000000000000000000000081525081526020016040518060400160405280600a81526020017f436f6d70656e736174650000000000000000000000000000000000000000000081525081526020016040518060400160405280600981526020017f496e74657272757074000000000000000000000000000000000000000000000081525081526020016040518060400160405280600581526020017f536d61736800000000000000000000000000000000000000000000000000000081525081526020016040518060400160405280600a81526020017f556e6465727374616e640000000000000000000000000000000000000000000081525081526020016040518060400160405280600781526020017f436f6d6d616e640000000000000000000000000000000000000000000000000081525081526020016040518060400160405280600b81526020017f41636b6e6f776c6564676500000000000000000000000000000000000000000081525081526020016040518060400160405280600481526020017f446174650000000000000000000000000000000000000000000000000000000081525081526020016040518060400160405280600781526020017f436f6e73756d650000000000000000000000000000000000000000000000000081525081526020016040518060400160405280600981526020017f4163636f6d70616e79000000000000000000000000000000000000000000000081525081526020016040518060400160405280600581526020017f456c65637400000000000000000000000000000000000000000000000000000081525081526020016040518060400160405280600681526020017f5265636b6f6e000000000000000000000000000000000000000000000000000081525081526020016040518060400160405280600581526020017f436175736500000000000000000000000000000000000000000000000000000081525081526020016040518060400160405280600681526020017f456666656374000000000000000000000000000000000000000000000000000081525081526020016040518060400160405280600781526020017f50726f647563650000000000000000000000000000000000000000000000000081525081526020016040518060400160405280600481526020017f54656e640000000000000000000000000000000000000000000000000000000081525081526020016040518060400160405280600881526020017f436f6e747261737400000000000000000000000000000000000000000000000081525081526020016040518060400160405280600481526020017f426173650000000000000000000000000000000000000000000000000000000081525081526020016040518060400160405280600781526020017f526563656976650000000000000000000000000000000000000000000000000081525081526020016040518060400160405280600681526020017f417373657274000000000000000000000000000000000000000000000000000081525081526020016040518060400160405280600581526020017f4d6f756e7400000000000000000000000000000000000000000000000000000081525081526020016040518060400160405280600481526020017f53696e6b0000000000000000000000000000000000000000000000000000000081525081526020016040518060400160405280600581526020017f416c74657200000000000000000000000000000000000000000000000000000081525081526020016040518060400160405280600781526020017f4163636f756e740000000000000000000000000000000000000000000000000081525081526020016040518060400160405280600581526020017f436c61696d0000000000000000000000000000000000000000000000000000008152508152508152602001604051806103c001604052806040518060400160405280600781526020017f537472616e67650000000000000000000000000000000000000000000000000081525081526020016040518060400160405280600681526020017f556e74696479000000000000000000000000000000000000000000000000000081525081526020016040518060400160405280600881526020017f546572726966696300000000000000000000000000000000000000000000000081525081526020016040518060400160405280600881526020017f506f77657266756c00000000000000000000000000000000000000000000000081525081526020016040518060400160405280600981526020017f446973677573746564000000000000000000000000000000000000000000000081525081526020016040518060400160405280600881526020017f517569786f74696300000000000000000000000000000000000000000000000081525081526020016040518060400160405280600b81526020017f546865726170657574696300000000000000000000000000000000000000000081525081526020016040518060400160405280600981526020017f4178696f6d61746963000000000000000000000000000000000000000000000081525081526020016040518060400160405280600981526020017f446566656374697665000000000000000000000000000000000000000000000081525081526020016040518060400160405280600881526020017f496e6e6f63656e7400000000000000000000000000000000000000000000000081525081526020016040518060400160405280600481526020017f5265616c0000000000000000000000000000000000000000000000000000000081525081526020016040518060400160405280600881526020017f486f727269626c6500000000000000000000000000000000000000000000000081525081526020016040518060400160405280600581526020017f456c69746500000000000000000000000000000000000000000000000000000081525081526020016040518060400160405280600a81526020017f5468756e646572696e670000000000000000000000000000000000000000000081525081526020016040518060400160405280600681526020017f48756e677279000000000000000000000000000000000000000000000000000081525081526020016040518060400160405280600681526020017f556e6576656e000000000000000000000000000000000000000000000000000081525081526020016040518060400160405280600981526020017f5269676874656f7573000000000000000000000000000000000000000000000081525081526020016040518060400160405280600981526020017f417661696c61626c65000000000000000000000000000000000000000000000081525081526020016040518060400160405280600881526020017f577265746368656400000000000000000000000000000000000000000000000081525081526020016040518060400160405280600781526020017f56657264616e740000000000000000000000000000000000000000000000000081525081526020016040518060400160405280600581526020017f5a6970707900000000000000000000000000000000000000000000000000000081525081526020016040518060400160405280600681526020017f546f72706964000000000000000000000000000000000000000000000000000081525081526020016040518060400160405280600881526020017f506561636566756c00000000000000000000000000000000000000000000000081525081526020016040518060400160405280600781526020017f456c6567616e740000000000000000000000000000000000000000000000000081525081526020016040518060400160405280600681526020017f5365656d6c79000000000000000000000000000000000000000000000000000081525081526020016040518060400160405280600381526020017f426164000000000000000000000000000000000000000000000000000000000081525081526020016040518060400160405280600781526020017f4d6172726965640000000000000000000000000000000000000000000000000081525081526020016040518060400160405280600381526020017f54776f000000000000000000000000000000000000000000000000000000000081525081526020016040518060400160405280600481526020017f547275650000000000000000000000000000000000000000000000000000000081525081526020016040518060400160405280600681526020017f54726173687900000000000000000000000000000000000000000000000000008152508152508152602001604051806103c001604052806040518060400160405280600881526020017f446973617374657200000000000000000000000000000000000000000000000081525081526020016040518060400160405280600781526020017f416c636f686f6c0000000000000000000000000000000000000000000000000081525081526020016040518060400160405280600781526020017f4172746973616e0000000000000000000000000000000000000000000000000081525081526020016040518060400160405280600481526020017f48616c6c0000000000000000000000000000000000000000000000000000000081525081526020016040518060400160405280600581526020017f576f726c6400000000000000000000000000000000000000000000000000000081525081526020016040518060400160405280600581526020017f486f74656c00000000000000000000000000000000000000000000000000000081525081526020016040518060400160405280600481526020017f557365720000000000000000000000000000000000000000000000000000000081525081526020016040518060400160405280600a81526020017f5065726d697373696f6e0000000000000000000000000000000000000000000081525081526020016040518060400160405280600681526020017f526563697065000000000000000000000000000000000000000000000000000081525081526020016040518060400160405280600681526020017f506f7461746f000000000000000000000000000000000000000000000000000081525081526020016040518060400160405280600681526020017f477569746172000000000000000000000000000000000000000000000000000081525081526020016040518060400160405280600981526020017f41677265656d656e74000000000000000000000000000000000000000000000081525081526020016040518060400160405280600881526020017f496e64757374727900000000000000000000000000000000000000000000000081525081526020016040518060400160405280600681526020017f4e6174696f6e000000000000000000000000000000000000000000000000000081525081526020016040518060400160405280600981526020017f417474656e74696f6e000000000000000000000000000000000000000000000081525081526020016040518060400160405280600781526020017f526576656e75650000000000000000000000000000000000000000000000000081525081526020016040518060400160405280600781526020017f46697368696e670000000000000000000000000000000000000000000000000081525081526020016040518060400160405280600881526020017f486f6d65776f726b00000000000000000000000000000000000000000000000081525081526020016040518060400160405280600a81526020017f52657075746174696f6e0000000000000000000000000000000000000000000081525081526020016040518060400160405280600881526020017f526573706f6e736500000000000000000000000000000000000000000000000081525081526020016040518060400160405280600581526020017f596f75746800000000000000000000000000000000000000000000000000000081525081526020016040518060400160405280600881526020017f417474697475646500000000000000000000000000000000000000000000000081525081526020016040518060400160405280600981526020017f436967617265747465000000000000000000000000000000000000000000000081525081526020016040518060400160405280600781526020017f436f6c6c6567650000000000000000000000000000000000000000000000000081525081526020016040518060400160405280600681526020017f546f6e677565000000000000000000000000000000000000000000000000000081525081526020016040518060400160405280600581526020017f4d7573696300000000000000000000000000000000000000000000000000000081525081526020016040518060400160405280600781526020017f426564726f6f6d0000000000000000000000000000000000000000000000000081525081526020016040518060400160405280600681526020017f427265617468000000000000000000000000000000000000000000000000000081525081526020016040518060400160405280600681526020017f4d6574686f64000000000000000000000000000000000000000000000000000081525081526020016040518060400160405280600c81526020017f5369676e69666963616e6365000000000000000000000000000000000000000081525081525081525060099060036200153f9291906200179c565b503480156200154d57600080fd5b506040518060400160405280600881526020017f427261766f4e46540000000000000000000000000000000000000000000000008152506040518060400160405280600581526020017f425241564f0000000000000000000000000000000000000000000000000000008152508160009080519060200190620015d29291906200170b565b508060019080519060200190620015eb9291906200170b565b505050620016396040518060400160405280601e81526020017f54686973206973206d79204e465420636f6e74726163742e2057686f612100008152506200163f60201b62000d8e1760201c565b62001a6a565b620016df816040516024016200165691906200197e565b6040516020818303038152906040527f41304fac000000000000000000000000000000000000000000000000000000007bffffffffffffffffffffffffffffffffffffffffffffffffffffffff19166020820180517bffffffffffffffffffffffffffffffffffffffffffffffffffffffff8381831617835250505050620016e260201b60201c565b50565b60008151905060006a636f6e736f6c652e6c6f679050602083016000808483855afa5050505050565b8280546200171990620019f4565b90600052602060002090601f0160209004810192826200173d576000855562001789565b82601f106200175857805160ff191683800117855562001789565b8280016001018555821562001789579182015b82811115620017885782518255916020019190600101906200176b565b5b509050620017989190620017fe565b5090565b828054828255906000526020600020908101928215620017eb579160200282015b82811115620017ea5782518290601e620017d99291906200181d565b5091602001919060010190620017bd565b5b509050620017fa919062001884565b5090565b5b8082111562001819576000816000905550600101620017ff565b5090565b82805482825590600052602060002090810192821562001871579160200282015b82811115620018705782518290805190602001906200185f9291906200170b565b50916020019190600101906200183e565b5b509050620018809190620018ac565b5090565b5b80821115620018a857600081816200189e9190620018d4565b5060010162001885565b5090565b5b80821115620018d05760008181620018c69190620018f7565b50600101620018ad565b5090565b5080546000825590600052602060002090810190620018f49190620018ac565b50565b5080546200190590620019f4565b6000825580601f106200191957506200193a565b601f016020900490600052602060002090810190620019399190620017fe565b5b50565b60006200194a82620019a2565b620019568185620019ad565b935062001968818560208601620019be565b620019738162001a59565b840191505092915050565b600060208201905081810360008301526200199a81846200193d565b905092915050565b600081519050919050565b600082825260208201905092915050565b60005b83811015620019de578082015181840152602081019050620019c1565b83811115620019ee576000848401525b50505050565b6000600282049050600182168062001a0d57607f821691505b6020821081141562001a245762001a2362001a2a565b5b50919050565b7f4e487b7100000000000000000000000000000000000000000000000000000000600052602260045260246000fd5b6000601f19601f8301169050919050565b6138138062001a7a6000396000f3fe608060405234801561001057600080fd5b50600436106101005760003560e01c806370a0823111610097578063c87b56dd11610066578063c87b56dd146102ab578063de9d132f146102db578063e985e9c5146102e5578063f47c84c51461031557610100565b806370a082311461022557806395d89b4114610255578063a22cb46514610273578063b88d4fde1461028f57610100565b806318160ddd116100d357806318160ddd1461019f57806323b872dd146101bd57806342842e0e146101d95780636352211e146101f557610100565b806301ffc9a71461010557806306fdde0314610135578063081812fc14610153578063095ea7b314610183575b600080fd5b61011f600480360381019061011a9190612348565b610333565b60405161012c9190612a0e565b60405180910390f35b61013d610415565b60405161014a9190612a29565b60405180910390f35b61016d6004803603810190610168919061239a565b6104a7565b60405161017a919061295b565b60405180910390f35b61019d6004803603810190610198919061230c565b61052c565b005b6101a7610644565b6040516101b49190612ca9565b60405180910390f35b6101d760048036038101906101d29190612206565b610655565b005b6101f360048036038101906101ee9190612206565b6106b5565b005b61020f600480360381019061020a919061239a565b6106d5565b60405161021c919061295b565b60405180910390f35b61023f600480360381019061023a91906121a1565b610787565b60405161024c9190612ca9565b60405180910390f35b61025d61083f565b60405161026a9190612a29565b60405180910390f35b61028d600480360381019061028891906122d0565b6108d1565b005b6102a960048036038101906102a49190612255565b6108e7565b005b6102c560048036038101906102c0919061239a565b610949565b6040516102d29190612a29565b60405180910390f35b6102e3610a9b565b005b6102ff60048036038101906102fa91906121ca565b610cf5565b60405161030c9190612a0e565b60405180910390f35b61031d610d89565b60405161032a9190612ca9565b60405180910390f35b60007f80ac58cd000000000000000000000000000000000000000000000000000000007bffffffffffffffffffffffffffffffffffffffffffffffffffffffff1916827bffffffffffffffffffffffffffffffffffffffffffffffffffffffff191614806103fe57507f5b5e139f000000000000000000000000000000000000000000000000000000007bffffffffffffffffffffffffffffffffffffffffffffffffffffffff1916827bffffffffffffffffffffffffffffffffffffffffffffffffffffffff1916145b8061040e575061040d82610e27565b5b9050919050565b60606000805461042490612f3d565b80601f016020809104026020016040519081016040528092919081815260200182805461045090612f3d565b801561049d5780601f106104725761010080835404028352916020019161049d565b820191906000526020600020905b81548152906001019060200180831161048057829003601f168201915b5050505050905090565b60006104b282610e91565b6104f1576040517f08c379a00000000000000000000000000000000000000000000000000000000081526004016104e890612c29565b60405180910390fd5b6004600083815260200190815260200160002060009054906101000a900473ffffffffffffffffffffffffffffffffffffffff169050919050565b6000610537826106d5565b90508073ffffffffffffffffffffffffffffffffffffffff168373ffffffffffffffffffffffffffffffffffffffff1614156105a8576040517f08c379a000000000000000000000000000000000000000000000000000000000815260040161059f90612c69565b60405180910390fd5b8073ffffffffffffffffffffffffffffffffffffffff166105c7610efd565b73ffffffffffffffffffffffffffffffffffffffff1614806105f657506105f5816105f0610efd565b610cf5565b5b610635576040517f08c379a000000000000000000000000000000000000000000000000000000000815260040161062c90612b69565b60405180910390fd5b61063f8383610f05565b505050565b60006106506007610fbe565b905090565b610666610660610efd565b82610fcc565b6106a5576040517f08c379a000000000000000000000000000000000000000000000000000000000815260040161069c90612c89565b60405180910390fd5b6106b08383836110aa565b505050565b6106d0838383604051806020016040528060008152506108e7565b505050565b6000806002600084815260200190815260200160002060009054906101000a900473ffffffffffffffffffffffffffffffffffffffff169050600073ffffffffffffffffffffffffffffffffffffffff168173ffffffffffffffffffffffffffffffffffffffff16141561077e576040517f08c379a000000000000000000000000000000000000000000000000000000000815260040161077590612ba9565b60405180910390fd5b80915050919050565b60008073ffffffffffffffffffffffffffffffffffffffff168273ffffffffffffffffffffffffffffffffffffffff1614156107f8576040517f08c379a00000000000000000000000000000000000000000000000000000000081526004016107ef90612b89565b60405180910390fd5b600360008373ffffffffffffffffffffffffffffffffffffffff1673ffffffffffffffffffffffffffffffffffffffff168152602001908152602001600020549050919050565b60606001805461084e90612f3d565b80601f016020809104026020016040519081016040528092919081815260200182805461087a90612f3d565b80156108c75780601f1061089c576101008083540402835291602001916108c7565b820191906000526020600020905b8154815290600101906020018083116108aa57829003601f168201915b5050505050905090565b6108e36108dc610efd565b8383611311565b5050565b6108f86108f2610efd565b83610fcc565b610937576040517f08c379a000000000000000000000000000000000000000000000000000000000815260040161092e90612c89565b60405180910390fd5b6109438484848461147e565b50505050565b606061095482610e91565b610993576040517f08c379a000000000000000000000000000000000000000000000000000000000815260040161098a90612c09565b60405180910390fd5b60006006600084815260200190815260200160002080546109b390612f3d565b80601f01602080910402602001604051908101604052809291908181526020018280546109df90612f3d565b8015610a2c5780601f10610a0157610100808354040283529160200191610a2c565b820191906000526020600020905b815481529060010190602001808311610a0f57829003601f168201915b505050505090506000610a3d6114da565b9050600081511415610a53578192505050610a96565b600082511115610a88578082604051602001610a7092919061284e565b60405160208183030381529060405292505050610a96565b610a91846114f1565b925050505b919050565b6032610aa5610644565b10610ae5576040517f08c379a0000000000000000000000000000000000000000000000000000000008152600401610adc90612ae9565b60405180910390fd5b6000610af16007610fbe565b90506000610b00600083611598565b90506000610b0f600184611598565b90506000610b1e600285611598565b90506000838383604051602001610b3793929190612872565b60405160208183030381529060405290506000600882604051602001610b5e9291906128a3565b60405160208183030381529060405290506000610ba383610b7e84611745565b604051602001610b8f9291906128f4565b604051602081830303815290604052611745565b9050600081604051602001610bb89190612939565b6040516020818303038152906040529050610c076040518060400160405280601581526020017f0a2d2d2d2d2d2d2d2d2d2d2d2d2d2d2d2d2d2d2d2d0000000000000000000000815250610d8e565b610c2f81604051602001610c1b91906128d2565b604051602081830303815290604052610d8e565b610c6d6040518060400160405280601581526020017f2d2d2d2d2d2d2d2d2d2d2d2d2d2d2d2d2d2d2d2d0a0000000000000000000000815250610d8e565b610c7733896118e4565b610c818882611902565b610c8b6007611976565b7f025ef87970171f64b228ebedf31f52e5af6063c0587b03611819415a755cf73833898642604051610cc094939291906129c2565b60405180910390a1610ceb60405180606001604052806025815260200161377960259139893361198c565b5050505050505050565b6000600560008473ffffffffffffffffffffffffffffffffffffffff1673ffffffffffffffffffffffffffffffffffffffff16815260200190815260200160002060008373ffffffffffffffffffffffffffffffffffffffff1673ffffffffffffffffffffffffffffffffffffffff16815260200190815260200160002060009054906101000a900460ff16905092915050565b603281565b610e2481604051602401610da29190612a29565b6040516020818303038152906040527f41304fac000000000000000000000000000000000000000000000000000000007bffffffffffffffffffffffffffffffffffffffffffffffffffffffff19166020820180517bffffffffffffffffffffffffffffffffffffffffffffffffffffffff8381831617835250505050611a2b565b50565b60007f01ffc9a7000000000000000000000000000000000000000000000000000000007bffffffffffffffffffffffffffffffffffffffffffffffffffffffff1916827bffffffffffffffffffffffffffffffffffffffffffffffffffffffff1916149050919050565b60008073ffffffffffffffffffffffffffffffffffffffff166002600084815260200190815260200160002060009054906101000a900473ffffffffffffffffffffffffffffffffffffffff1673ffffffffffffffffffffffffffffffffffffffff1614159050919050565b600033905090565b816004600083815260200190815260200160002060006101000a81548173ffffffffffffffffffffffffffffffffffffffff021916908373ffffffffffffffffffffffffffffffffffffffff160217905550808273ffffffffffffffffffffffffffffffffffffffff16610f78836106d5565b73ffffffffffffffffffffffffffffffffffffffff167f8c5be1e5ebec7d5bd14f71427d1e84f3dd0314c0f7b2291e5b200ac8c7c3b92560405160405180910390a45050565b600081600001549050919050565b6000610fd782610e91565b611016576040517f08c379a000000000000000000000000000000000000000000000000000000000815260040161100d90612b49565b60405180910390fd5b6000611021836106d5565b90508073ffffffffffffffffffffffffffffffffffffffff168473ffffffffffffffffffffffffffffffffffffffff16148061109057508373ffffffffffffffffffffffffffffffffffffffff16611078846104a7565b73ffffffffffffffffffffffffffffffffffffffff16145b806110a157506110a08185610cf5565b5b91505092915050565b8273ffffffffffffffffffffffffffffffffffffffff166110ca826106d5565b73ffffffffffffffffffffffffffffffffffffffff1614611120576040517f08c379a000000000000000000000000000000000000000000000000000000000815260040161111790612aa9565b60405180910390fd5b600073ffffffffffffffffffffffffffffffffffffffff168273ffffffffffffffffffffffffffffffffffffffff161415611190576040517f08c379a000000000000000000000000000000000000000000000000000000000815260040161118790612b09565b60405180910390fd5b61119b838383611a54565b6111a6600082610f05565b6001600360008573ffffffffffffffffffffffffffffffffffffffff1673ffffffffffffffffffffffffffffffffffffffff16815260200190815260200160002060008282546111f69190612e53565b925050819055506001600360008473ffffffffffffffffffffffffffffffffffffffff1673ffffffffffffffffffffffffffffffffffffffff168152602001908152602001600020600082825461124d9190612d72565b92505081905550816002600083815260200190815260200160002060006101000a81548173ffffffffffffffffffffffffffffffffffffffff021916908373ffffffffffffffffffffffffffffffffffffffff160217905550808273ffffffffffffffffffffffffffffffffffffffff168473ffffffffffffffffffffffffffffffffffffffff167fddf252ad1be2c89b69c2b068fc378daa952ba7f163c4a11628f55a4df523b3ef60405160405180910390a461130c838383611a59565b505050565b8173ffffffffffffffffffffffffffffffffffffffff168373ffffffffffffffffffffffffffffffffffffffff161415611380576040517f08c379a000000000000000000000000000000000000000000000000000000000815260040161137790612b29565b60405180910390fd5b80600560008573ffffffffffffffffffffffffffffffffffffffff1673ffffffffffffffffffffffffffffffffffffffff16815260200190815260200160002060008473ffffffffffffffffffffffffffffffffffffffff1673ffffffffffffffffffffffffffffffffffffffff16815260200190815260200160002060006101000a81548160ff0219169083151502179055508173ffffffffffffffffffffffffffffffffffffffff168373ffffffffffffffffffffffffffffffffffffffff167f17307eab39ab6107e8899845ad3d59bd9653f200f220920489ca2b5937696c31836040516114719190612a0e565b60405180910390a3505050565b6114898484846110aa565b61149584848484611a5e565b6114d4576040517f08c379a00000000000000000000000000000000000000000000000000000000081526004016114cb90612a89565b60405180910390fd5b50505050565b606060405180602001604052806000815250905090565b60606114fc82610e91565b61153b576040517f08c379a000000000000000000000000000000000000000000000000000000000815260040161153290612c49565b60405180910390fd5b60006115456114da565b905060008151116115655760405180602001604052806000815250611590565b8061156f84611bf5565b60405160200161158092919061284e565b6040516020818303038152906040525b915050919050565b606060006115d66115a885611bf5565b6115b185611bf5565b6040516020016115c292919061284e565b604051602081830303815290604052611da2565b905060098481548110611612577f4e487b7100000000000000000000000000000000000000000000000000000000600052603260045260246000fd5b90600052602060002001805490508161162b9190612fe9565b905060098481548110611667577f4e487b7100000000000000000000000000000000000000000000000000000000600052603260045260246000fd5b9060005260206000200181815481106116a9577f4e487b7100000000000000000000000000000000000000000000000000000000600052603260045260246000fd5b9060005260206000200180546116be90612f3d565b80601f01602080910402602001604051908101604052809291908181526020018280546116ea90612f3d565b80156117375780601f1061170c57610100808354040283529160200191611737565b820191906000526020600020905b81548152906001019060200180831161171a57829003601f168201915b505050505091505092915050565b6060600082511415611768576040518060200160405280600081525090506118df565b600060405180606001604052806040815260200161379e60409139905060006003600285516117979190612d72565b6117a19190612dc8565b60046117ad9190612df9565b905060006020826117be9190612d72565b67ffffffffffffffff8111156117fd577f4e487b7100000000000000000000000000000000000000000000000000000000600052604160045260246000fd5b6040519080825280601f01601f19166020018201604052801561182f5781602001600182028036833780820191505090505b509050818152600183018586518101602084015b8183101561189e576003830192508251603f8160121c168501518253600182019150603f81600c1c168501518253600182019150603f8160061c168501518253600182019150603f8116850151825360018201915050611843565b6003895106600181146118b857600281146118c8576118d3565b613d3d60f01b60028303526118d3565b603d60f81b60018303525b50505050508093505050505b919050565b6118fe828260405180602001604052806000815250611dd5565b5050565b61190b82610e91565b61194a576040517f08c379a000000000000000000000000000000000000000000000000000000000815260040161194190612bc9565b60405180910390fd5b8060066000848152602001908152602001600020908051906020019061197192919061202d565b505050565b6001816000016000828254019250508190555050565b611a268383836040516024016119a493929190612a4b565b6040516020818303038152906040527fe3849f79000000000000000000000000000000000000000000000000000000007bffffffffffffffffffffffffffffffffffffffffffffffffffffffff19166020820180517bffffffffffffffffffffffffffffffffffffffffffffffffffffffff8381831617835250505050611a2b565b505050565b60008151905060006a636f6e736f6c652e6c6f679050602083016000808483855afa5050505050565b505050565b505050565b6000611a7f8473ffffffffffffffffffffffffffffffffffffffff16611e30565b15611be8578373ffffffffffffffffffffffffffffffffffffffff1663150b7a02611aa8610efd565b8786866040518563ffffffff1660e01b8152600401611aca9493929190612976565b602060405180830381600087803b158015611ae457600080fd5b505af1925050508015611b1557506040513d601f19601f82011682018060405250810190611b129190612371565b60015b611b98573d8060008114611b45576040519150601f19603f3d011682016040523d82523d6000602084013e611b4a565b606091505b50600081511415611b90576040517f08c379a0000000000000000000000000000000000000000000000000000000008152600401611b8790612a89565b60405180910390fd5b805181602001fd5b63150b7a0260e01b7bffffffffffffffffffffffffffffffffffffffffffffffffffffffff1916817bffffffffffffffffffffffffffffffffffffffffffffffffffffffff191614915050611bed565b600190505b949350505050565b60606000821415611c3d576040518060400160405280600181526020017f30000000000000000000000000000000000000000000000000000000000000008152509050611d9d565b600082905060005b60008214611c6f578080611c5890612fa0565b915050600a82611c689190612dc8565b9150611c45565b60008167ffffffffffffffff811115611cb1577f4e487b7100000000000000000000000000000000000000000000000000000000600052604160045260246000fd5b6040519080825280601f01601f191660200182016040528015611ce35781602001600182028036833780820191505090505b5090505b60008514611d9657600182611cfc9190612e53565b9150600a85611d0b9190612fe9565b6030611d179190612d72565b60f81b818381518110611d53577f4e487b7100000000000000000000000000000000000000000000000000000000600052603260045260246000fd5b60200101907effffffffffffffffffffffffffffffffffffffffffffffffffffffffffffff1916908160001a905350600a85611d8f9190612dc8565b9450611ce7565b8093505050505b919050565b600081604051602001611db59190612837565b6040516020818303038152906040528051906020012060001c9050919050565b611ddf8383611e53565b611dec6000848484611a5e565b611e2b576040517f08c379a0000000000000000000000000000000000000000000000000000000008152600401611e2290612a89565b60405180910390fd5b505050565b6000808273ffffffffffffffffffffffffffffffffffffffff163b119050919050565b600073ffffffffffffffffffffffffffffffffffffffff168273ffffffffffffffffffffffffffffffffffffffff161415611ec3576040517f08c379a0000000000000000000000000000000000000000000000000000000008152600401611eba90612be9565b60405180910390fd5b611ecc81610e91565b15611f0c576040517f08c379a0000000000000000000000000000000000000000000000000000000008152600401611f0390612ac9565b60405180910390fd5b611f1860008383611a54565b6001600360008473ffffffffffffffffffffffffffffffffffffffff1673ffffffffffffffffffffffffffffffffffffffff1681526020019081526020016000206000828254611f689190612d72565b92505081905550816002600083815260200190815260200160002060006101000a81548173ffffffffffffffffffffffffffffffffffffffff021916908373ffffffffffffffffffffffffffffffffffffffff160217905550808273ffffffffffffffffffffffffffffffffffffffff16600073ffffffffffffffffffffffffffffffffffffffff167fddf252ad1be2c89b69c2b068fc378daa952ba7f163c4a11628f55a4df523b3ef60405160405180910390a461202960008383611a59565b5050565b82805461203990612f3d565b90600052602060002090601f01602090048101928261205b57600085556120a2565b82601f1061207457805160ff19168380011785556120a2565b828001600101855582156120a2579182015b828111156120a1578251825591602001919060010190612086565b5b5090506120af91906120b3565b5090565b5b808211156120cc5760008160009055506001016120b4565b5090565b60006120e36120de84612ce9565b612cc4565b9050828152602081018484840111156120fb57600080fd5b612106848285612efb565b509392505050565b60008135905061211d8161371c565b92915050565b60008135905061213281613733565b92915050565b6000813590506121478161374a565b92915050565b60008151905061215c8161374a565b92915050565b600082601f83011261217357600080fd5b81356121838482602086016120d0565b91505092915050565b60008135905061219b81613761565b92915050565b6000602082840312156121b357600080fd5b60006121c18482850161210e565b91505092915050565b600080604083850312156121dd57600080fd5b60006121eb8582860161210e565b92505060206121fc8582860161210e565b9150509250929050565b60008060006060848603121561221b57600080fd5b60006122298682870161210e565b935050602061223a8682870161210e565b925050604061224b8682870161218c565b9150509250925092565b6000806000806080858703121561226b57600080fd5b60006122798782880161210e565b945050602061228a8782880161210e565b935050604061229b8782880161218c565b925050606085013567ffffffffffffffff8111156122b857600080fd5b6122c487828801612162565b91505092959194509250565b600080604083850312156122e357600080fd5b60006122f18582860161210e565b925050602061230285828601612123565b9150509250929050565b6000806040838503121561231f57600080fd5b600061232d8582860161210e565b925050602061233e8582860161218c565b9150509250929050565b60006020828403121561235a57600080fd5b600061236884828501612138565b91505092915050565b60006020828403121561238357600080fd5b60006123918482850161214d565b91505092915050565b6000602082840312156123ac57600080fd5b60006123ba8482850161218c565b91505092915050565b6123cc81612e87565b82525050565b6123db81612e99565b82525050565b60006123ec82612d2f565b6123f68185612d45565b9350612406818560208601612f0a565b61240f816130d6565b840191505092915050565b600061242582612d3a565b61242f8185612d56565b935061243f818560208601612f0a565b612448816130d6565b840191505092915050565b600061245e82612d3a565b6124688185612d67565b9350612478818560208601612f0a565b80840191505092915050565b6000815461249181612f3d565b61249b8186612d67565b945060018216600081146124b657600181146124c7576124fa565b60ff198316865281860193506124fa565b6124d085612d1a565b60005b838110156124f2578154818901526001820191506020810190506124d3565b838801955050505b50505092915050565b6000612510602583612d67565b915061251b826130e7565b602582019050919050565b6000612533603283612d56565b915061253e82613136565b604082019050919050565b6000612556602583612d56565b915061256182613185565b604082019050919050565b6000612579601c83612d56565b9150612584826131d4565b602082019050919050565b600061259c601583612d56565b91506125a7826131fd565b602082019050919050565b60006125bf602483612d56565b91506125ca82613226565b604082019050919050565b60006125e2601983612d56565b91506125ed82613275565b602082019050919050565b6000612605606383612d67565b91506126108261329e565b606382019050919050565b6000612628602c83612d56565b915061263382613339565b604082019050919050565b600061264b600d83612d67565b915061265682613388565b600d82019050919050565b600061266e603883612d56565b9150612679826133b1565b604082019050919050565b6000612691602a83612d56565b915061269c82613400565b604082019050919050565b60006126b4602983612d56565b91506126bf8261344f565b604082019050919050565b60006126d7602e83612d56565b91506126e28261349e565b604082019050919050565b60006126fa600283612d67565b9150612705826134ed565b600282019050919050565b600061271d602083612d56565b915061272882613516565b602082019050919050565b6000612740603183612d56565b915061274b8261353f565b604082019050919050565b6000612763602c83612d56565b915061276e8261358e565b604082019050919050565b6000612786602f83612d56565b9150612791826135dd565b604082019050919050565b60006127a9600a83612d67565b91506127b48261362c565b600a82019050919050565b60006127cc602183612d56565b91506127d782613655565b604082019050919050565b60006127ef601d83612d67565b91506127fa826136a4565b601d82019050919050565b6000612812603183612d56565b915061281d826136cd565b604082019050919050565b61283181612ef1565b82525050565b60006128438284612453565b915081905092915050565b600061285a8285612453565b91506128668284612453565b91508190509392505050565b600061287e8286612453565b915061288a8285612453565b91506128968284612453565b9150819050949350505050565b60006128af8285612484565b91506128bb8284612453565b91506128c68261263e565b91508190509392505050565b60006128dd82612503565b91506128e98284612453565b915081905092915050565b60006128ff8261279c565b915061290b8285612453565b9150612916826125f8565b91506129228284612453565b915061292d826126ed565b91508190509392505050565b6000612944826127e2565b91506129508284612453565b915081905092915050565b600060208201905061297060008301846123c3565b92915050565b600060808201905061298b60008301876123c3565b61299860208301866123c3565b6129a56040830185612828565b81810360608301526129b781846123e1565b905095945050505050565b60006080820190506129d760008301876123c3565b6129e46020830186612828565b81810360408301526129f6818561241a565b9050612a056060830184612828565b95945050505050565b6000602082019050612a2360008301846123d2565b92915050565b60006020820190508181036000830152612a43818461241a565b905092915050565b60006060820190508181036000830152612a65818661241a565b9050612a746020830185612828565b612a8160408301846123c3565b949350505050565b60006020820190508181036000830152612aa281612526565b9050919050565b60006020820190508181036000830152612ac281612549565b9050919050565b60006020820190508181036000830152612ae28161256c565b9050919050565b60006020820190508181036000830152612b028161258f565b9050919050565b60006020820190508181036000830152612b22816125b2565b9050919050565b60006020820190508181036000830152612b42816125d5565b9050919050565b60006020820190508181036000830152612b628161261b565b9050919050565b60006020820190508181036000830152612b8281612661565b9050919050565b60006020820190508181036000830152612ba281612684565b9050919050565b60006020820190508181036000830152612bc2816126a7565b9050919050565b60006020820190508181036000830152612be2816126ca565b9050919050565b60006020820190508181036000830152612c0281612710565b9050919050565b60006020820190508181036000830152612c2281612733565b9050919050565b60006020820190508181036000830152612c4281612756565b9050919050565b60006020820190508181036000830152612c6281612779565b9050919050565b60006020820190508181036000830152612c82816127bf565b9050919050565b60006020820190508181036000830152612ca281612805565b9050919050565b6000602082019050612cbe6000830184612828565b92915050565b6000612cce612cdf565b9050612cda8282612f6f565b919050565b6000604051905090565b600067ffffffffffffffff821115612d0457612d036130a7565b5b612d0d826130d6565b9050602081019050919050565b60008190508160005260206000209050919050565b600081519050919050565b600081519050919050565b600082825260208201905092915050565b600082825260208201905092915050565b600081905092915050565b6000612d7d82612ef1565b9150612d8883612ef1565b9250827fffffffffffffffffffffffffffffffffffffffffffffffffffffffffffffffff03821115612dbd57612dbc61301a565b5b828201905092915050565b6000612dd382612ef1565b9150612dde83612ef1565b925082612dee57612ded613049565b5b828204905092915050565b6000612e0482612ef1565b9150612e0f83612ef1565b9250817fffffffffffffffffffffffffffffffffffffffffffffffffffffffffffffffff0483118215151615612e4857612e4761301a565b5b828202905092915050565b6000612e5e82612ef1565b9150612e6983612ef1565b925082821015612e7c57612e7b61301a565b5b828203905092915050565b6000612e9282612ed1565b9050919050565b60008115159050919050565b60007fffffffff0000000000000000000000000000000000000000000000000000000082169050919050565b600073ffffffffffffffffffffffffffffffffffffffff82169050919050565b6000819050919050565b82818337600083830152505050565b60005b83811015612f28578082015181840152602081019050612f0d565b83811115612f37576000848401525b50505050565b60006002820490506001821680612f5557607f821691505b60208210811415612f6957612f68613078565b5b50919050565b612f78826130d6565b810181811067ffffffffffffffff82111715612f9757612f966130a7565b5b80604052505050565b6000612fab82612ef1565b91507fffffffffffffffffffffffffffffffffffffffffffffffffffffffffffffffff821415612fde57612fdd61301a565b5b600182019050919050565b6000612ff482612ef1565b9150612fff83612ef1565b92508261300f5761300e613049565b5b828206905092915050565b7f4e487b7100000000000000000000000000000000000000000000000000000000600052601160045260246000fd5b7f4e487b7100000000000000000000000000000000000000000000000000000000600052601260045260246000fd5b7f4e487b7100000000000000000000000000000000000000000000000000000000600052602260045260246000fd5b7f4e487b7100000000000000000000000000000000000000000000000000000000600052604160045260246000fd5b6000601f19601f8301169050919050565b7f68747470733a2f2f6e6674707265766965772e30786465762e636f6465732f3f60008201527f636f64653d000000000000000000000000000000000000000000000000000000602082015250565b7f4552433732313a207472616e7366657220746f206e6f6e20455243373231526560008201527f63656976657220696d706c656d656e7465720000000000000000000000000000602082015250565b7f4552433732313a207472616e736665722066726f6d20696e636f72726563742060008201527f6f776e6572000000000000000000000000000000000000000000000000000000602082015250565b7f4552433732313a20746f6b656e20616c7265616479206d696e74656400000000600082015250565b7f4e6f206d6f726520676f6f64696573206c656674210000000000000000000000600082015250565b7f4552433732313a207472616e7366657220746f20746865207a65726f2061646460008201527f7265737300000000000000000000000000000000000000000000000000000000602082015250565b7f4552433732313a20617070726f766520746f2063616c6c657200000000000000600082015250565b7f222c20226465736372697074696f6e223a20224120686967686c79206163636c60008201527f61696d656420636f6c6c656374696f6e206f6620737175617265732e222c202260208201527f696d616765223a2022646174613a696d6167652f7376672b786d6c3b6261736560408201527f36342c0000000000000000000000000000000000000000000000000000000000606082015250565b7f4552433732313a206f70657261746f7220717565727920666f72206e6f6e657860008201527f697374656e7420746f6b656e0000000000000000000000000000000000000000602082015250565b7f3c2f746578743e3c2f7376673e00000000000000000000000000000000000000600082015250565b7f4552433732313a20617070726f76652063616c6c6572206973206e6f74206f7760008201527f6e6572206e6f7220617070726f76656420666f7220616c6c0000000000000000602082015250565b7f4552433732313a2062616c616e636520717565727920666f7220746865207a6560008201527f726f206164647265737300000000000000000000000000000000000000000000602082015250565b7f4552433732313a206f776e657220717565727920666f72206e6f6e657869737460008201527f656e7420746f6b656e0000000000000000000000000000000000000000000000602082015250565b7f45524337323155524953746f726167653a2055524920736574206f66206e6f6e60008201527f6578697374656e7420746f6b656e000000000000000000000000000000000000602082015250565b7f227d000000000000000000000000000000000000000000000000000000000000600082015250565b7f4552433732313a206d696e7420746f20746865207a65726f2061646472657373600082015250565b7f45524337323155524953746f726167653a2055524920717565727920666f722060008201527f6e6f6e6578697374656e7420746f6b656e000000000000000000000000000000602082015250565b7f4552433732313a20617070726f76656420717565727920666f72206e6f6e657860008201527f697374656e7420746f6b656e0000000000000000000000000000000000000000602082015250565b7f4552433732314d657461646174613a2055524920717565727920666f72206e6f60008201527f6e6578697374656e7420746f6b656e0000000000000000000000000000000000602082015250565b7f7b226e616d65223a202200000000000000000000000000000000000000000000600082015250565b7f4552433732313a20617070726f76616c20746f2063757272656e74206f776e6560008201527f7200000000000000000000000000000000000000000000000000000000000000602082015250565b7f646174613a6170706c69636174696f6e2f6a736f6e3b6261736536342c000000600082015250565b7f4552433732313a207472616e736665722063616c6c6572206973206e6f74206f60008201527f776e6572206e6f7220617070726f766564000000000000000000000000000000602082015250565b61372581612e87565b811461373057600080fd5b50565b61373c81612e99565b811461374757600080fd5b50565b61375381612ea5565b811461375e57600080fd5b50565b61376a81612ef1565b811461377557600080fd5b5056fe416e204e465420772f20494420257320686173206265656e206d696e74656420746f2025734142434445464748494a4b4c4d4e4f505152535455565758595a6162636465666768696a6b6c6d6e6f707172737475767778797a303132333435363738392b2fa2646970667358221220066d0cf934241917fce27c242efec16c3ffa880457c0f9fdd4a89c179e22d23664736f6c634300080400333c73766720786d6c6e733d27687474703a2f2f7777772e77332e6f72672f323030302f73766727207072657365727665417370656374526174696f3d27784d696e594d696e206d656574272076696577426f783d273020302033353020333530273e3c7374796c653e2e62617365207b2066696c6c3a2077686974653b20666f6e742d66616d696c793a2073657269663b20666f6e742d73697a653a20323470783b207d3c2f7374796c653e3c726563742077696474683d273130302527206865696768743d2731303025272066696c6c3d27626c61636b27202f3e3c7465787420783d273530252720793d273530252720636c6173733d27626173652720646f6d696e616e742d626173656c696e653d276d6964646c652720746578742d616e63686f723d276d6964646c65273e",
  "linkReferences": {},
  "deployedLinkReferences": {}
}