{
  "_format": "hh-sol-artifact-1",
  "contractName": "MyEpicNFT",
  "sourceName": "contracts/MyEpicNFT.sol",
  "abi": [
    {
      "inputs": [],
      "stateMutability": "nonpayable",
      "type": "constructor"
    },
    {
      "anonymous": false,
      "inputs": [
        {
          "indexed": true,
          "internalType": "address",
          "name": "owner",
          "type": "address"
        },
        {
          "indexed": true,
          "internalType": "address",
          "name": "approved",
          "type": "address"
        },
        {
          "indexed": true,
          "internalType": "uint256",
          "name": "tokenId",
          "type": "uint256"
        }
      ],
      "name": "Approval",
      "type": "event"
    },
    {
      "anonymous": false,
      "inputs": [
        {
          "indexed": true,
          "internalType": "address",
          "name": "owner",
          "type": "address"
        },
        {
          "indexed": true,
          "internalType": "address",
          "name": "operator",
          "type": "address"
        },
        {
          "indexed": false,
          "internalType": "bool",
          "name": "approved",
          "type": "bool"
        }
      ],
      "name": "ApprovalForAll",
      "type": "event"
    },
    {
      "anonymous": false,
      "inputs": [
        {
          "indexed": true,
          "internalType": "address",
          "name": "from",
          "type": "address"
        },
        {
          "indexed": true,
          "internalType": "address",
          "name": "to",
          "type": "address"
        },
        {
          "indexed": true,
          "internalType": "uint256",
          "name": "tokenId",
          "type": "uint256"
        }
      ],
      "name": "Transfer",
      "type": "event"
    },
    {
      "inputs": [
        {
          "internalType": "address",
          "name": "to",
          "type": "address"
        },
        {
          "internalType": "uint256",
          "name": "tokenId",
          "type": "uint256"
        }
      ],
      "name": "approve",
      "outputs": [],
      "stateMutability": "nonpayable",
      "type": "function"
    },
    {
      "inputs": [
        {
          "internalType": "address",
          "name": "owner",
          "type": "address"
        }
      ],
      "name": "balanceOf",
      "outputs": [
        {
          "internalType": "uint256",
          "name": "",
          "type": "uint256"
        }
      ],
      "stateMutability": "view",
      "type": "function"
    },
    {
      "inputs": [
        {
          "internalType": "uint256",
          "name": "tokenId",
          "type": "uint256"
        }
      ],
      "name": "getApproved",
      "outputs": [
        {
          "internalType": "address",
          "name": "",
          "type": "address"
        }
      ],
      "stateMutability": "view",
      "type": "function"
    },
    {
      "inputs": [
        {
          "internalType": "address",
          "name": "owner",
          "type": "address"
        },
        {
          "internalType": "address",
          "name": "operator",
          "type": "address"
        }
      ],
      "name": "isApprovedForAll",
      "outputs": [
        {
          "internalType": "bool",
          "name": "",
          "type": "bool"
        }
      ],
      "stateMutability": "view",
      "type": "function"
    },
    {
      "inputs": [],
      "name": "makeAnEpicNFT",
      "outputs": [],
      "stateMutability": "nonpayable",
      "type": "function"
    },
    {
      "inputs": [],
      "name": "name",
      "outputs": [
        {
          "internalType": "string",
          "name": "",
          "type": "string"
        }
      ],
      "stateMutability": "view",
      "type": "function"
    },
    {
      "inputs": [
        {
          "internalType": "uint256",
          "name": "tokenId",
          "type": "uint256"
        }
      ],
      "name": "ownerOf",
      "outputs": [
        {
          "internalType": "address",
          "name": "",
          "type": "address"
        }
      ],
      "stateMutability": "view",
      "type": "function"
    },
    {
      "inputs": [
        {
          "internalType": "address",
          "name": "from",
          "type": "address"
        },
        {
          "internalType": "address",
          "name": "to",
          "type": "address"
        },
        {
          "internalType": "uint256",
          "name": "tokenId",
          "type": "uint256"
        }
      ],
      "name": "safeTransferFrom",
      "outputs": [],
      "stateMutability": "nonpayable",
      "type": "function"
    },
    {
      "inputs": [
        {
          "internalType": "address",
          "name": "from",
          "type": "address"
        },
        {
          "internalType": "address",
          "name": "to",
          "type": "address"
        },
        {
          "internalType": "uint256",
          "name": "tokenId",
          "type": "uint256"
        },
        {
          "internalType": "bytes",
          "name": "_data",
          "type": "bytes"
        }
      ],
      "name": "safeTransferFrom",
      "outputs": [],
      "stateMutability": "nonpayable",
      "type": "function"
    },
    {
      "inputs": [
        {
          "internalType": "address",
          "name": "operator",
          "type": "address"
        },
        {
          "internalType": "bool",
          "name": "approved",
          "type": "bool"
        }
      ],
      "name": "setApprovalForAll",
      "outputs": [],
      "stateMutability": "nonpayable",
      "type": "function"
    },
    {
      "inputs": [
        {
          "internalType": "bytes4",
          "name": "interfaceId",
          "type": "bytes4"
        }
      ],
      "name": "supportsInterface",
      "outputs": [
        {
          "internalType": "bool",
          "name": "",
          "type": "bool"
        }
      ],
      "stateMutability": "view",
      "type": "function"
    },
    {
      "inputs": [],
      "name": "symbol",
      "outputs": [
        {
          "internalType": "string",
          "name": "",
          "type": "string"
        }
      ],
      "stateMutability": "view",
      "type": "function"
    },
    {
      "inputs": [
        {
          "internalType": "uint256",
          "name": "tokenId",
          "type": "uint256"
        }
      ],
      "name": "tokenURI",
      "outputs": [
        {
          "internalType": "string",
          "name": "",
          "type": "string"
        }
      ],
      "stateMutability": "view",
      "type": "function"
    },
    {
      "inputs": [
        {
          "internalType": "address",
          "name": "from",
          "type": "address"
        },
        {
          "internalType": "address",
          "name": "to",
          "type": "address"
        },
        {
          "internalType": "uint256",
          "name": "tokenId",
          "type": "uint256"
        }
      ],
      "name": "transferFrom",
      "outputs": [],
      "stateMutability": "nonpayable",
      "type": "function"
    }
  ],
  "bytecode": "0x608060405260405180610160016040528061012f8152602001620050e661012f913960089080519060200190620000389291906200170b565b506040518060600160405280604051806103c001604052806040518060400160405280600781526020017f52656275696c640000000000000000000000000000000000000000000000000081525081526020016040518060400160405280600481526020017f57696e640000000000000000000000000000000000000000000000000000000081525081526020016040518060400160405280600681526020017f46756c66696c000000000000000000000000000000000000000000000000000081525081526020016040518060400160405280600581526020017f576174636800000000000000000000000000000000000000000000000000000081525081526020016040518060400160405280600581526020017f436c6f736500000000000000000000000000000000000000000000000000000081525081526020016040518060400160405280600981526020017f43616c63756c617465000000000000000000000000000000000000000000000081525081526020016040518060400160405280600a81526020017f436f6d70656e736174650000000000000000000000000000000000000000000081525081526020016040518060400160405280600981526020017f496e74657272757074000000000000000000000000000000000000000000000081525081526020016040518060400160405280600581526020017f536d61736800000000000000000000000000000000000000000000000000000081525081526020016040518060400160405280600a81526020017f556e6465727374616e640000000000000000000000000000000000000000000081525081526020016040518060400160405280600781526020017f436f6d6d616e640000000000000000000000000000000000000000000000000081525081526020016040518060400160405280600b81526020017f41636b6e6f776c6564676500000000000000000000000000000000000000000081525081526020016040518060400160405280600481526020017f446174650000000000000000000000000000000000000000000000000000000081525081526020016040518060400160405280600781526020017f436f6e73756d650000000000000000000000000000000000000000000000000081525081526020016040518060400160405280600981526020017f4163636f6d70616e79000000000000000000000000000000000000000000000081525081526020016040518060400160405280600581526020017f456c65637400000000000000000000000000000000000000000000000000000081525081526020016040518060400160405280600681526020017f5265636b6f6e000000000000000000000000000000000000000000000000000081525081526020016040518060400160405280600581526020017f436175736500000000000000000000000000000000000000000000000000000081525081526020016040518060400160405280600681526020017f456666656374000000000000000000000000000000000000000000000000000081525081526020016040518060400160405280600781526020017f50726f647563650000000000000000000000000000000000000000000000000081525081526020016040518060400160405280600481526020017f54656e640000000000000000000000000000000000000000000000000000000081525081526020016040518060400160405280600881526020017f436f6e747261737400000000000000000000000000000000000000000000000081525081526020016040518060400160405280600481526020017f426173650000000000000000000000000000000000000000000000000000000081525081526020016040518060400160405280600781526020017f526563656976650000000000000000000000000000000000000000000000000081525081526020016040518060400160405280600681526020017f417373657274000000000000000000000000000000000000000000000000000081525081526020016040518060400160405280600581526020017f4d6f756e7400000000000000000000000000000000000000000000000000000081525081526020016040518060400160405280600481526020017f53696e6b0000000000000000000000000000000000000000000000000000000081525081526020016040518060400160405280600581526020017f416c74657200000000000000000000000000000000000000000000000000000081525081526020016040518060400160405280600781526020017f4163636f756e740000000000000000000000000000000000000000000000000081525081526020016040518060400160405280600581526020017f436c61696d0000000000000000000000000000000000000000000000000000008152508152508152602001604051806103c001604052806040518060400160405280600781526020017f537472616e67650000000000000000000000000000000000000000000000000081525081526020016040518060400160405280600681526020017f556e74696479000000000000000000000000000000000000000000000000000081525081526020016040518060400160405280600881526020017f546572726966696300000000000000000000000000000000000000000000000081525081526020016040518060400160405280600881526020017f506f77657266756c00000000000000000000000000000000000000000000000081525081526020016040518060400160405280600981526020017f446973677573746564000000000000000000000000000000000000000000000081525081526020016040518060400160405280600881526020017f517569786f74696300000000000000000000000000000000000000000000000081525081526020016040518060400160405280600b81526020017f546865726170657574696300000000000000000000000000000000000000000081525081526020016040518060400160405280600981526020017f4178696f6d61746963000000000000000000000000000000000000000000000081525081526020016040518060400160405280600981526020017f446566656374697665000000000000000000000000000000000000000000000081525081526020016040518060400160405280600881526020017f496e6e6f63656e7400000000000000000000000000000000000000000000000081525081526020016040518060400160405280600481526020017f5265616c0000000000000000000000000000000000000000000000000000000081525081526020016040518060400160405280600881526020017f486f727269626c6500000000000000000000000000000000000000000000000081525081526020016040518060400160405280600581526020017f456c69746500000000000000000000000000000000000000000000000000000081525081526020016040518060400160405280600a81526020017f5468756e646572696e670000000000000000000000000000000000000000000081525081526020016040518060400160405280600681526020017f48756e677279000000000000000000000000000000000000000000000000000081525081526020016040518060400160405280600681526020017f556e6576656e000000000000000000000000000000000000000000000000000081525081526020016040518060400160405280600981526020017f5269676874656f7573000000000000000000000000000000000000000000000081525081526020016040518060400160405280600981526020017f417661696c61626c65000000000000000000000000000000000000000000000081525081526020016040518060400160405280600881526020017f577265746368656400000000000000000000000000000000000000000000000081525081526020016040518060400160405280600781526020017f56657264616e740000000000000000000000000000000000000000000000000081525081526020016040518060400160405280600581526020017f5a6970707900000000000000000000000000000000000000000000000000000081525081526020016040518060400160405280600681526020017f546f72706964000000000000000000000000000000000000000000000000000081525081526020016040518060400160405280600881526020017f506561636566756c00000000000000000000000000000000000000000000000081525081526020016040518060400160405280600781526020017f456c6567616e740000000000000000000000000000000000000000000000000081525081526020016040518060400160405280600681526020017f5365656d6c79000000000000000000000000000000000000000000000000000081525081526020016040518060400160405280600381526020017f426164000000000000000000000000000000000000000000000000000000000081525081526020016040518060400160405280600781526020017f4d6172726965640000000000000000000000000000000000000000000000000081525081526020016040518060400160405280600381526020017f54776f000000000000000000000000000000000000000000000000000000000081525081526020016040518060400160405280600481526020017f547275650000000000000000000000000000000000000000000000000000000081525081526020016040518060400160405280600681526020017f54726173687900000000000000000000000000000000000000000000000000008152508152508152602001604051806103c001604052806040518060400160405280600881526020017f446973617374657200000000000000000000000000000000000000000000000081525081526020016040518060400160405280600781526020017f416c636f686f6c0000000000000000000000000000000000000000000000000081525081526020016040518060400160405280600781526020017f4172746973616e0000000000000000000000000000000000000000000000000081525081526020016040518060400160405280600481526020017f48616c6c0000000000000000000000000000000000000000000000000000000081525081526020016040518060400160405280600581526020017f576f726c6400000000000000000000000000000000000000000000000000000081525081526020016040518060400160405280600581526020017f486f74656c00000000000000000000000000000000000000000000000000000081525081526020016040518060400160405280600481526020017f557365720000000000000000000000000000000000000000000000000000000081525081526020016040518060400160405280600a81526020017f5065726d697373696f6e0000000000000000000000000000000000000000000081525081526020016040518060400160405280600681526020017f526563697065000000000000000000000000000000000000000000000000000081525081526020016040518060400160405280600681526020017f506f7461746f000000000000000000000000000000000000000000000000000081525081526020016040518060400160405280600681526020017f477569746172000000000000000000000000000000000000000000000000000081525081526020016040518060400160405280600981526020017f41677265656d656e74000000000000000000000000000000000000000000000081525081526020016040518060400160405280600881526020017f496e64757374727900000000000000000000000000000000000000000000000081525081526020016040518060400160405280600681526020017f4e6174696f6e000000000000000000000000000000000000000000000000000081525081526020016040518060400160405280600981526020017f417474656e74696f6e000000000000000000000000000000000000000000000081525081526020016040518060400160405280600781526020017f526576656e75650000000000000000000000000000000000000000000000000081525081526020016040518060400160405280600781526020017f46697368696e670000000000000000000000000000000000000000000000000081525081526020016040518060400160405280600881526020017f486f6d65776f726b00000000000000000000000000000000000000000000000081525081526020016040518060400160405280600a81526020017f52657075746174696f6e0000000000000000000000000000000000000000000081525081526020016040518060400160405280600881526020017f526573706f6e736500000000000000000000000000000000000000000000000081525081526020016040518060400160405280600581526020017f596f75746800000000000000000000000000000000000000000000000000000081525081526020016040518060400160405280600881526020017f417474697475646500000000000000000000000000000000000000000000000081525081526020016040518060400160405280600981526020017f436967617265747465000000000000000000000000000000000000000000000081525081526020016040518060400160405280600781526020017f436f6c6c6567650000000000000000000000000000000000000000000000000081525081526020016040518060400160405280600681526020017f546f6e677565000000000000000000000000000000000000000000000000000081525081526020016040518060400160405280600581526020017f4d7573696300000000000000000000000000000000000000000000000000000081525081526020016040518060400160405280600781526020017f426564726f6f6d0000000000000000000000000000000000000000000000000081525081526020016040518060400160405280600681526020017f427265617468000000000000000000000000000000000000000000000000000081525081526020016040518060400160405280600681526020017f4d6574686f64000000000000000000000000000000000000000000000000000081525081526020016040518060400160405280600c81526020017f5369676e69666963616e6365000000000000000000000000000000000000000081525081525081525060099060036200153f9291906200179c565b503480156200154d57600080fd5b506040518060400160405280600881526020017f427261766f4e46540000000000000000000000000000000000000000000000008152506040518060400160405280600581526020017f425241564f0000000000000000000000000000000000000000000000000000008152508160009080519060200190620015d29291906200170b565b508060019080519060200190620015eb9291906200170b565b505050620016396040518060400160405280601e81526020017f54686973206973206d79204e465420636f6e74726163742e2057686f612100008152506200163f60201b62000c9f1760201c565b62001a6a565b620016df816040516024016200165691906200197e565b6040516020818303038152906040527f41304fac000000000000000000000000000000000000000000000000000000007bffffffffffffffffffffffffffffffffffffffffffffffffffffffff19166020820180517bffffffffffffffffffffffffffffffffffffffffffffffffffffffff8381831617835250505050620016e260201b60201c565b50565b60008151905060006a636f6e736f6c652e6c6f679050602083016000808483855afa5050505050565b8280546200171990620019f4565b90600052602060002090601f0160209004810192826200173d576000855562001789565b82601f106200175857805160ff191683800117855562001789565b8280016001018555821562001789579182015b82811115620017885782518255916020019190600101906200176b565b5b509050620017989190620017fe565b5090565b828054828255906000526020600020908101928215620017eb579160200282015b82811115620017ea5782518290601e620017d99291906200181d565b5091602001919060010190620017bd565b5b509050620017fa919062001884565b5090565b5b8082111562001819576000816000905550600101620017ff565b5090565b82805482825590600052602060002090810192821562001871579160200282015b82811115620018705782518290805190602001906200185f9291906200170b565b50916020019190600101906200183e565b5b509050620018809190620018ac565b5090565b5b80821115620018a857600081816200189e9190620018d4565b5060010162001885565b5090565b5b80821115620018d05760008181620018c69190620018f7565b50600101620018ad565b5090565b5080546000825590600052602060002090810190620018f49190620018ac565b50565b5080546200190590620019f4565b6000825580601f106200191957506200193a565b601f016020900490600052602060002090810190620019399190620017fe565b5b50565b60006200194a82620019a2565b620019568185620019ad565b935062001968818560208601620019be565b620019738162001a59565b840191505092915050565b600060208201905081810360008301526200199a81846200193d565b905092915050565b600081519050919050565b600082825260208201905092915050565b60005b83811015620019de578082015181840152602081019050620019c1565b83811115620019ee576000848401525b50505050565b6000600282049050600182168062001a0d57607f821691505b6020821081141562001a245762001a2362001a2a565b5b50919050565b7f4e487b7100000000000000000000000000000000000000000000000000000000600052602260045260246000fd5b6000601f19601f8301169050919050565b61366c8062001a7a6000396000f3fe608060405234801561001057600080fd5b50600436106100ea5760003560e01c806370a082311161008c578063b88d4fde11610066578063b88d4fde1461025b578063c87b56dd14610277578063de9d132f146102a7578063e985e9c5146102b1576100ea565b806370a08231146101f157806395d89b4114610221578063a22cb4651461023f576100ea565b8063095ea7b3116100c8578063095ea7b31461016d57806323b872dd1461018957806342842e0e146101a55780636352211e146101c1576100ea565b806301ffc9a7146100ef57806306fdde031461011f578063081812fc1461013d575b600080fd5b61010960048036038101906101049190612259565b6102e1565b60405161011691906128b0565b60405180910390f35b6101276103c3565b60405161013491906128cb565b60405180910390f35b610157600480360381019061015291906122ab565b610455565b6040516101649190612849565b60405180910390f35b6101876004803603810190610182919061221d565b6104da565b005b6101a3600480360381019061019e9190612117565b6105f2565b005b6101bf60048036038101906101ba9190612117565b610652565b005b6101db60048036038101906101d691906122ab565b610672565b6040516101e89190612849565b60405180910390f35b61020b600480360381019061020691906120b2565b610724565b6040516102189190612b2b565b60405180910390f35b6102296107dc565b60405161023691906128cb565b60405180910390f35b610259600480360381019061025491906121e1565b61086e565b005b61027560048036038101906102709190612166565b610884565b005b610291600480360381019061028c91906122ab565b6108e6565b60405161029e91906128cb565b60405180910390f35b6102af610a38565b005b6102cb60048036038101906102c691906120db565b610c0b565b6040516102d891906128b0565b60405180910390f35b60007f80ac58cd000000000000000000000000000000000000000000000000000000007bffffffffffffffffffffffffffffffffffffffffffffffffffffffff1916827bffffffffffffffffffffffffffffffffffffffffffffffffffffffff191614806103ac57507f5b5e139f000000000000000000000000000000000000000000000000000000007bffffffffffffffffffffffffffffffffffffffffffffffffffffffff1916827bffffffffffffffffffffffffffffffffffffffffffffffffffffffff1916145b806103bc57506103bb82610d38565b5b9050919050565b6060600080546103d290612dbf565b80601f01602080910402602001604051908101604052809291908181526020018280546103fe90612dbf565b801561044b5780601f106104205761010080835404028352916020019161044b565b820191906000526020600020905b81548152906001019060200180831161042e57829003601f168201915b5050505050905090565b600061046082610da2565b61049f576040517f08c379a000000000000000000000000000000000000000000000000000000000815260040161049690612aab565b60405180910390fd5b6004600083815260200190815260200160002060009054906101000a900473ffffffffffffffffffffffffffffffffffffffff169050919050565b60006104e582610672565b90508073ffffffffffffffffffffffffffffffffffffffff168373ffffffffffffffffffffffffffffffffffffffff161415610556576040517f08c379a000000000000000000000000000000000000000000000000000000000815260040161054d90612aeb565b60405180910390fd5b8073ffffffffffffffffffffffffffffffffffffffff16610575610e0e565b73ffffffffffffffffffffffffffffffffffffffff1614806105a457506105a38161059e610e0e565b610c0b565b5b6105e3576040517f08c379a00000000000000000000000000000000000000000000000000000000081526004016105da906129eb565b60405180910390fd5b6105ed8383610e16565b505050565b6106036105fd610e0e565b82610ecf565b610642576040517f08c379a000000000000000000000000000000000000000000000000000000000815260040161063990612b0b565b60405180910390fd5b61064d838383610fad565b505050565b61066d83838360405180602001604052806000815250610884565b505050565b6000806002600084815260200190815260200160002060009054906101000a900473ffffffffffffffffffffffffffffffffffffffff169050600073ffffffffffffffffffffffffffffffffffffffff168173ffffffffffffffffffffffffffffffffffffffff16141561071b576040517f08c379a000000000000000000000000000000000000000000000000000000000815260040161071290612a2b565b60405180910390fd5b80915050919050565b60008073ffffffffffffffffffffffffffffffffffffffff168273ffffffffffffffffffffffffffffffffffffffff161415610795576040517f08c379a000000000000000000000000000000000000000000000000000000000815260040161078c90612a0b565b60405180910390fd5b600360008373ffffffffffffffffffffffffffffffffffffffff1673ffffffffffffffffffffffffffffffffffffffff168152602001908152602001600020549050919050565b6060600180546107eb90612dbf565b80601f016020809104026020016040519081016040528092919081815260200182805461081790612dbf565b80156108645780601f1061083957610100808354040283529160200191610864565b820191906000526020600020905b81548152906001019060200180831161084757829003601f168201915b5050505050905090565b610880610879610e0e565b8383611214565b5050565b61089561088f610e0e565b83610ecf565b6108d4576040517f08c379a00000000000000000000000000000000000000000000000000000000081526004016108cb90612b0b565b60405180910390fd5b6108e084848484611381565b50505050565b60606108f182610da2565b610930576040517f08c379a000000000000000000000000000000000000000000000000000000000815260040161092790612a8b565b60405180910390fd5b600060066000848152602001908152602001600020805461095090612dbf565b80601f016020809104026020016040519081016040528092919081815260200182805461097c90612dbf565b80156109c95780601f1061099e576101008083540402835291602001916109c9565b820191906000526020600020905b8154815290600101906020018083116109ac57829003601f168201915b5050505050905060006109da6113dd565b90506000815114156109f0578192505050610a33565b600082511115610a25578082604051602001610a0d92919061273c565b60405160208183030381529060405292505050610a33565b610a2e846113f4565b925050505b919050565b6000610a44600761149b565b90506000610a536000836114a9565b90506000610a626001846114a9565b90506000610a716002856114a9565b90506000838383604051602001610a8a93929190612760565b60405160208183030381529060405290506000600882604051602001610ab1929190612791565b60405160208183030381529060405290506000610af683610ad184611656565b604051602001610ae29291906127e2565b604051602081830303815290604052611656565b9050600081604051602001610b0b9190612827565b6040516020818303038152906040529050610b5a6040518060400160405280601581526020017f0a2d2d2d2d2d2d2d2d2d2d2d2d2d2d2d2d2d2d2d2d0000000000000000000000815250610c9f565b610b8281604051602001610b6e91906127c0565b604051602081830303815290604052610c9f565b610bc06040518060400160405280601581526020017f2d2d2d2d2d2d2d2d2d2d2d2d2d2d2d2d2d2d2d2d0a0000000000000000000000815250610c9f565b610bca33896117f5565b610bd48882611813565b610bde6007611887565b610c016040518060600160405280602581526020016135d260259139893361189d565b5050505050505050565b6000600560008473ffffffffffffffffffffffffffffffffffffffff1673ffffffffffffffffffffffffffffffffffffffff16815260200190815260200160002060008373ffffffffffffffffffffffffffffffffffffffff1673ffffffffffffffffffffffffffffffffffffffff16815260200190815260200160002060009054906101000a900460ff16905092915050565b610d3581604051602401610cb391906128cb565b6040516020818303038152906040527f41304fac000000000000000000000000000000000000000000000000000000007bffffffffffffffffffffffffffffffffffffffffffffffffffffffff19166020820180517bffffffffffffffffffffffffffffffffffffffffffffffffffffffff838183161783525050505061193c565b50565b60007f01ffc9a7000000000000000000000000000000000000000000000000000000007bffffffffffffffffffffffffffffffffffffffffffffffffffffffff1916827bffffffffffffffffffffffffffffffffffffffffffffffffffffffff1916149050919050565b60008073ffffffffffffffffffffffffffffffffffffffff166002600084815260200190815260200160002060009054906101000a900473ffffffffffffffffffffffffffffffffffffffff1673ffffffffffffffffffffffffffffffffffffffff1614159050919050565b600033905090565b816004600083815260200190815260200160002060006101000a81548173ffffffffffffffffffffffffffffffffffffffff021916908373ffffffffffffffffffffffffffffffffffffffff160217905550808273ffffffffffffffffffffffffffffffffffffffff16610e8983610672565b73ffffffffffffffffffffffffffffffffffffffff167f8c5be1e5ebec7d5bd14f71427d1e84f3dd0314c0f7b2291e5b200ac8c7c3b92560405160405180910390a45050565b6000610eda82610da2565b610f19576040517f08c379a0000000000000000000000000000000000000000000000000000000008152600401610f10906129cb565b60405180910390fd5b6000610f2483610672565b90508073ffffffffffffffffffffffffffffffffffffffff168473ffffffffffffffffffffffffffffffffffffffff161480610f9357508373ffffffffffffffffffffffffffffffffffffffff16610f7b84610455565b73ffffffffffffffffffffffffffffffffffffffff16145b80610fa45750610fa38185610c0b565b5b91505092915050565b8273ffffffffffffffffffffffffffffffffffffffff16610fcd82610672565b73ffffffffffffffffffffffffffffffffffffffff1614611023576040517f08c379a000000000000000000000000000000000000000000000000000000000815260040161101a9061294b565b60405180910390fd5b600073ffffffffffffffffffffffffffffffffffffffff168273ffffffffffffffffffffffffffffffffffffffff161415611093576040517f08c379a000000000000000000000000000000000000000000000000000000000815260040161108a9061298b565b60405180910390fd5b61109e838383611965565b6110a9600082610e16565b6001600360008573ffffffffffffffffffffffffffffffffffffffff1673ffffffffffffffffffffffffffffffffffffffff16815260200190815260200160002060008282546110f99190612cd5565b925050819055506001600360008473ffffffffffffffffffffffffffffffffffffffff1673ffffffffffffffffffffffffffffffffffffffff16815260200190815260200160002060008282546111509190612bf4565b92505081905550816002600083815260200190815260200160002060006101000a81548173ffffffffffffffffffffffffffffffffffffffff021916908373ffffffffffffffffffffffffffffffffffffffff160217905550808273ffffffffffffffffffffffffffffffffffffffff168473ffffffffffffffffffffffffffffffffffffffff167fddf252ad1be2c89b69c2b068fc378daa952ba7f163c4a11628f55a4df523b3ef60405160405180910390a461120f83838361196a565b505050565b8173ffffffffffffffffffffffffffffffffffffffff168373ffffffffffffffffffffffffffffffffffffffff161415611283576040517f08c379a000000000000000000000000000000000000000000000000000000000815260040161127a906129ab565b60405180910390fd5b80600560008573ffffffffffffffffffffffffffffffffffffffff1673ffffffffffffffffffffffffffffffffffffffff16815260200190815260200160002060008473ffffffffffffffffffffffffffffffffffffffff1673ffffffffffffffffffffffffffffffffffffffff16815260200190815260200160002060006101000a81548160ff0219169083151502179055508173ffffffffffffffffffffffffffffffffffffffff168373ffffffffffffffffffffffffffffffffffffffff167f17307eab39ab6107e8899845ad3d59bd9653f200f220920489ca2b5937696c318360405161137491906128b0565b60405180910390a3505050565b61138c848484610fad565b6113988484848461196f565b6113d7576040517f08c379a00000000000000000000000000000000000000000000000000000000081526004016113ce9061292b565b60405180910390fd5b50505050565b606060405180602001604052806000815250905090565b60606113ff82610da2565b61143e576040517f08c379a000000000000000000000000000000000000000000000000000000000815260040161143590612acb565b60405180910390fd5b60006114486113dd565b905060008151116114685760405180602001604052806000815250611493565b8061147284611b06565b60405160200161148392919061273c565b6040516020818303038152906040525b915050919050565b600081600001549050919050565b606060006114e76114b985611b06565b6114c285611b06565b6040516020016114d392919061273c565b604051602081830303815290604052611cb3565b905060098481548110611523577f4e487b7100000000000000000000000000000000000000000000000000000000600052603260045260246000fd5b90600052602060002001805490508161153c9190612e6b565b905060098481548110611578577f4e487b7100000000000000000000000000000000000000000000000000000000600052603260045260246000fd5b9060005260206000200181815481106115ba577f4e487b7100000000000000000000000000000000000000000000000000000000600052603260045260246000fd5b9060005260206000200180546115cf90612dbf565b80601f01602080910402602001604051908101604052809291908181526020018280546115fb90612dbf565b80156116485780601f1061161d57610100808354040283529160200191611648565b820191906000526020600020905b81548152906001019060200180831161162b57829003601f168201915b505050505091505092915050565b6060600082511415611679576040518060200160405280600081525090506117f0565b60006040518060600160405280604081526020016135f760409139905060006003600285516116a89190612bf4565b6116b29190612c4a565b60046116be9190612c7b565b905060006020826116cf9190612bf4565b67ffffffffffffffff81111561170e577f4e487b7100000000000000000000000000000000000000000000000000000000600052604160045260246000fd5b6040519080825280601f01601f1916602001820160405280156117405781602001600182028036833780820191505090505b509050818152600183018586518101602084015b818310156117af576003830192508251603f8160121c168501518253600182019150603f81600c1c168501518253600182019150603f8160061c168501518253600182019150603f8116850151825360018201915050611754565b6003895106600181146117c957600281146117d9576117e4565b613d3d60f01b60028303526117e4565b603d60f81b60018303525b50505050508093505050505b919050565b61180f828260405180602001604052806000815250611ce6565b5050565b61181c82610da2565b61185b576040517f08c379a000000000000000000000000000000000000000000000000000000000815260040161185290612a4b565b60405180910390fd5b80600660008481526020019081526020016000209080519060200190611882929190611f3e565b505050565b6001816000016000828254019250508190555050565b6119378383836040516024016118b5939291906128ed565b6040516020818303038152906040527fe3849f79000000000000000000000000000000000000000000000000000000007bffffffffffffffffffffffffffffffffffffffffffffffffffffffff19166020820180517bffffffffffffffffffffffffffffffffffffffffffffffffffffffff838183161783525050505061193c565b505050565b60008151905060006a636f6e736f6c652e6c6f679050602083016000808483855afa5050505050565b505050565b505050565b60006119908473ffffffffffffffffffffffffffffffffffffffff16611d41565b15611af9578373ffffffffffffffffffffffffffffffffffffffff1663150b7a026119b9610e0e565b8786866040518563ffffffff1660e01b81526004016119db9493929190612864565b602060405180830381600087803b1580156119f557600080fd5b505af1925050508015611a2657506040513d601f19601f82011682018060405250810190611a239190612282565b60015b611aa9573d8060008114611a56576040519150601f19603f3d011682016040523d82523d6000602084013e611a5b565b606091505b50600081511415611aa1576040517f08c379a0000000000000000000000000000000000000000000000000000000008152600401611a989061292b565b60405180910390fd5b805181602001fd5b63150b7a0260e01b7bffffffffffffffffffffffffffffffffffffffffffffffffffffffff1916817bffffffffffffffffffffffffffffffffffffffffffffffffffffffff191614915050611afe565b600190505b949350505050565b60606000821415611b4e576040518060400160405280600181526020017f30000000000000000000000000000000000000000000000000000000000000008152509050611cae565b600082905060005b60008214611b80578080611b6990612e22565b915050600a82611b799190612c4a565b9150611b56565b60008167ffffffffffffffff811115611bc2577f4e487b7100000000000000000000000000000000000000000000000000000000600052604160045260246000fd5b6040519080825280601f01601f191660200182016040528015611bf45781602001600182028036833780820191505090505b5090505b60008514611ca757600182611c0d9190612cd5565b9150600a85611c1c9190612e6b565b6030611c289190612bf4565b60f81b818381518110611c64577f4e487b7100000000000000000000000000000000000000000000000000000000600052603260045260246000fd5b60200101907effffffffffffffffffffffffffffffffffffffffffffffffffffffffffffff1916908160001a905350600a85611ca09190612c4a565b9450611bf8565b8093505050505b919050565b600081604051602001611cc69190612725565b6040516020818303038152906040528051906020012060001c9050919050565b611cf08383611d64565b611cfd600084848461196f565b611d3c576040517f08c379a0000000000000000000000000000000000000000000000000000000008152600401611d339061292b565b60405180910390fd5b505050565b6000808273ffffffffffffffffffffffffffffffffffffffff163b119050919050565b600073ffffffffffffffffffffffffffffffffffffffff168273ffffffffffffffffffffffffffffffffffffffff161415611dd4576040517f08c379a0000000000000000000000000000000000000000000000000000000008152600401611dcb90612a6b565b60405180910390fd5b611ddd81610da2565b15611e1d576040517f08c379a0000000000000000000000000000000000000000000000000000000008152600401611e149061296b565b60405180910390fd5b611e2960008383611965565b6001600360008473ffffffffffffffffffffffffffffffffffffffff1673ffffffffffffffffffffffffffffffffffffffff1681526020019081526020016000206000828254611e799190612bf4565b92505081905550816002600083815260200190815260200160002060006101000a81548173ffffffffffffffffffffffffffffffffffffffff021916908373ffffffffffffffffffffffffffffffffffffffff160217905550808273ffffffffffffffffffffffffffffffffffffffff16600073ffffffffffffffffffffffffffffffffffffffff167fddf252ad1be2c89b69c2b068fc378daa952ba7f163c4a11628f55a4df523b3ef60405160405180910390a4611f3a6000838361196a565b5050565b828054611f4a90612dbf565b90600052602060002090601f016020900481019282611f6c5760008555611fb3565b82601f10611f8557805160ff1916838001178555611fb3565b82800160010185558215611fb3579182015b82811115611fb2578251825591602001919060010190611f97565b5b509050611fc09190611fc4565b5090565b5b80821115611fdd576000816000905550600101611fc5565b5090565b6000611ff4611fef84612b6b565b612b46565b90508281526020810184848401111561200c57600080fd5b612017848285612d7d565b509392505050565b60008135905061202e81613575565b92915050565b6000813590506120438161358c565b92915050565b600081359050612058816135a3565b92915050565b60008151905061206d816135a3565b92915050565b600082601f83011261208457600080fd5b8135612094848260208601611fe1565b91505092915050565b6000813590506120ac816135ba565b92915050565b6000602082840312156120c457600080fd5b60006120d28482850161201f565b91505092915050565b600080604083850312156120ee57600080fd5b60006120fc8582860161201f565b925050602061210d8582860161201f565b9150509250929050565b60008060006060848603121561212c57600080fd5b600061213a8682870161201f565b935050602061214b8682870161201f565b925050604061215c8682870161209d565b9150509250925092565b6000806000806080858703121561217c57600080fd5b600061218a8782880161201f565b945050602061219b8782880161201f565b93505060406121ac8782880161209d565b925050606085013567ffffffffffffffff8111156121c957600080fd5b6121d587828801612073565b91505092959194509250565b600080604083850312156121f457600080fd5b60006122028582860161201f565b925050602061221385828601612034565b9150509250929050565b6000806040838503121561223057600080fd5b600061223e8582860161201f565b925050602061224f8582860161209d565b9150509250929050565b60006020828403121561226b57600080fd5b600061227984828501612049565b91505092915050565b60006020828403121561229457600080fd5b60006122a28482850161205e565b91505092915050565b6000602082840312156122bd57600080fd5b60006122cb8482850161209d565b91505092915050565b6122dd81612d09565b82525050565b6122ec81612d1b565b82525050565b60006122fd82612bb1565b6123078185612bc7565b9350612317818560208601612d8c565b61232081612f58565b840191505092915050565b600061233682612bbc565b6123408185612bd8565b9350612350818560208601612d8c565b61235981612f58565b840191505092915050565b600061236f82612bbc565b6123798185612be9565b9350612389818560208601612d8c565b80840191505092915050565b600081546123a281612dbf565b6123ac8186612be9565b945060018216600081146123c757600181146123d85761240b565b60ff1983168652818601935061240b565b6123e185612b9c565b60005b83811015612403578154818901526001820191506020810190506123e4565b838801955050505b50505092915050565b6000612421602583612be9565b915061242c82612f69565b602582019050919050565b6000612444603283612bd8565b915061244f82612fb8565b604082019050919050565b6000612467602583612bd8565b915061247282613007565b604082019050919050565b600061248a601c83612bd8565b915061249582613056565b602082019050919050565b60006124ad602483612bd8565b91506124b88261307f565b604082019050919050565b60006124d0601983612bd8565b91506124db826130ce565b602082019050919050565b60006124f3606383612be9565b91506124fe826130f7565b606382019050919050565b6000612516602c83612bd8565b915061252182613192565b604082019050919050565b6000612539600d83612be9565b9150612544826131e1565b600d82019050919050565b600061255c603883612bd8565b91506125678261320a565b604082019050919050565b600061257f602a83612bd8565b915061258a82613259565b604082019050919050565b60006125a2602983612bd8565b91506125ad826132a8565b604082019050919050565b60006125c5602e83612bd8565b91506125d0826132f7565b604082019050919050565b60006125e8600283612be9565b91506125f382613346565b600282019050919050565b600061260b602083612bd8565b91506126168261336f565b602082019050919050565b600061262e603183612bd8565b915061263982613398565b604082019050919050565b6000612651602c83612bd8565b915061265c826133e7565b604082019050919050565b6000612674602f83612bd8565b915061267f82613436565b604082019050919050565b6000612697600a83612be9565b91506126a282613485565b600a82019050919050565b60006126ba602183612bd8565b91506126c5826134ae565b604082019050919050565b60006126dd601d83612be9565b91506126e8826134fd565b601d82019050919050565b6000612700603183612bd8565b915061270b82613526565b604082019050919050565b61271f81612d73565b82525050565b60006127318284612364565b915081905092915050565b60006127488285612364565b91506127548284612364565b91508190509392505050565b600061276c8286612364565b91506127788285612364565b91506127848284612364565b9150819050949350505050565b600061279d8285612395565b91506127a98284612364565b91506127b48261252c565b91508190509392505050565b60006127cb82612414565b91506127d78284612364565b915081905092915050565b60006127ed8261268a565b91506127f98285612364565b9150612804826124e6565b91506128108284612364565b915061281b826125db565b91508190509392505050565b6000612832826126d0565b915061283e8284612364565b915081905092915050565b600060208201905061285e60008301846122d4565b92915050565b600060808201905061287960008301876122d4565b61288660208301866122d4565b6128936040830185612716565b81810360608301526128a581846122f2565b905095945050505050565b60006020820190506128c560008301846122e3565b92915050565b600060208201905081810360008301526128e5818461232b565b905092915050565b60006060820190508181036000830152612907818661232b565b90506129166020830185612716565b61292360408301846122d4565b949350505050565b6000602082019050818103600083015261294481612437565b9050919050565b600060208201905081810360008301526129648161245a565b9050919050565b600060208201905081810360008301526129848161247d565b9050919050565b600060208201905081810360008301526129a4816124a0565b9050919050565b600060208201905081810360008301526129c4816124c3565b9050919050565b600060208201905081810360008301526129e481612509565b9050919050565b60006020820190508181036000830152612a048161254f565b9050919050565b60006020820190508181036000830152612a2481612572565b9050919050565b60006020820190508181036000830152612a4481612595565b9050919050565b60006020820190508181036000830152612a64816125b8565b9050919050565b60006020820190508181036000830152612a84816125fe565b9050919050565b60006020820190508181036000830152612aa481612621565b9050919050565b60006020820190508181036000830152612ac481612644565b9050919050565b60006020820190508181036000830152612ae481612667565b9050919050565b60006020820190508181036000830152612b04816126ad565b9050919050565b60006020820190508181036000830152612b24816126f3565b9050919050565b6000602082019050612b406000830184612716565b92915050565b6000612b50612b61565b9050612b5c8282612df1565b919050565b6000604051905090565b600067ffffffffffffffff821115612b8657612b85612f29565b5b612b8f82612f58565b9050602081019050919050565b60008190508160005260206000209050919050565b600081519050919050565b600081519050919050565b600082825260208201905092915050565b600082825260208201905092915050565b600081905092915050565b6000612bff82612d73565b9150612c0a83612d73565b9250827fffffffffffffffffffffffffffffffffffffffffffffffffffffffffffffffff03821115612c3f57612c3e612e9c565b5b828201905092915050565b6000612c5582612d73565b9150612c6083612d73565b925082612c7057612c6f612ecb565b5b828204905092915050565b6000612c8682612d73565b9150612c9183612d73565b9250817fffffffffffffffffffffffffffffffffffffffffffffffffffffffffffffffff0483118215151615612cca57612cc9612e9c565b5b828202905092915050565b6000612ce082612d73565b9150612ceb83612d73565b925082821015612cfe57612cfd612e9c565b5b828203905092915050565b6000612d1482612d53565b9050919050565b60008115159050919050565b60007fffffffff0000000000000000000000000000000000000000000000000000000082169050919050565b600073ffffffffffffffffffffffffffffffffffffffff82169050919050565b6000819050919050565b82818337600083830152505050565b60005b83811015612daa578082015181840152602081019050612d8f565b83811115612db9576000848401525b50505050565b60006002820490506001821680612dd757607f821691505b60208210811415612deb57612dea612efa565b5b50919050565b612dfa82612f58565b810181811067ffffffffffffffff82111715612e1957612e18612f29565b5b80604052505050565b6000612e2d82612d73565b91507fffffffffffffffffffffffffffffffffffffffffffffffffffffffffffffffff821415612e6057612e5f612e9c565b5b600182019050919050565b6000612e7682612d73565b9150612e8183612d73565b925082612e9157612e90612ecb565b5b828206905092915050565b7f4e487b7100000000000000000000000000000000000000000000000000000000600052601160045260246000fd5b7f4e487b7100000000000000000000000000000000000000000000000000000000600052601260045260246000fd5b7f4e487b7100000000000000000000000000000000000000000000000000000000600052602260045260246000fd5b7f4e487b7100000000000000000000000000000000000000000000000000000000600052604160045260246000fd5b6000601f19601f8301169050919050565b7f68747470733a2f2f6e6674707265766965772e30786465762e636f6465732f3f60008201527f636f64653d000000000000000000000000000000000000000000000000000000602082015250565b7f4552433732313a207472616e7366657220746f206e6f6e20455243373231526560008201527f63656976657220696d706c656d656e7465720000000000000000000000000000602082015250565b7f4552433732313a207472616e736665722066726f6d20696e636f72726563742060008201527f6f776e6572000000000000000000000000000000000000000000000000000000602082015250565b7f4552433732313a20746f6b656e20616c7265616479206d696e74656400000000600082015250565b7f4552433732313a207472616e7366657220746f20746865207a65726f2061646460008201527f7265737300000000000000000000000000000000000000000000000000000000602082015250565b7f4552433732313a20617070726f766520746f2063616c6c657200000000000000600082015250565b7f222c20226465736372697074696f6e223a20224120686967686c79206163636c60008201527f61696d656420636f6c6c656374696f6e206f6620737175617265732e222c202260208201527f696d616765223a2022646174613a696d6167652f7376672b786d6c3b6261736560408201527f36342c0000000000000000000000000000000000000000000000000000000000606082015250565b7f4552433732313a206f70657261746f7220717565727920666f72206e6f6e657860008201527f697374656e7420746f6b656e0000000000000000000000000000000000000000602082015250565b7f3c2f746578743e3c2f7376673e00000000000000000000000000000000000000600082015250565b7f4552433732313a20617070726f76652063616c6c6572206973206e6f74206f7760008201527f6e6572206e6f7220617070726f76656420666f7220616c6c0000000000000000602082015250565b7f4552433732313a2062616c616e636520717565727920666f7220746865207a6560008201527f726f206164647265737300000000000000000000000000000000000000000000602082015250565b7f4552433732313a206f776e657220717565727920666f72206e6f6e657869737460008201527f656e7420746f6b656e0000000000000000000000000000000000000000000000602082015250565b7f45524337323155524953746f726167653a2055524920736574206f66206e6f6e60008201527f6578697374656e7420746f6b656e000000000000000000000000000000000000602082015250565b7f227d000000000000000000000000000000000000000000000000000000000000600082015250565b7f4552433732313a206d696e7420746f20746865207a65726f2061646472657373600082015250565b7f45524337323155524953746f726167653a2055524920717565727920666f722060008201527f6e6f6e6578697374656e7420746f6b656e000000000000000000000000000000602082015250565b7f4552433732313a20617070726f76656420717565727920666f72206e6f6e657860008201527f697374656e7420746f6b656e0000000000000000000000000000000000000000602082015250565b7f4552433732314d657461646174613a2055524920717565727920666f72206e6f60008201527f6e6578697374656e7420746f6b656e0000000000000000000000000000000000602082015250565b7f7b226e616d65223a202200000000000000000000000000000000000000000000600082015250565b7f4552433732313a20617070726f76616c20746f2063757272656e74206f776e6560008201527f7200000000000000000000000000000000000000000000000000000000000000602082015250565b7f646174613a6170706c69636174696f6e2f6a736f6e3b6261736536342c000000600082015250565b7f4552433732313a207472616e736665722063616c6c6572206973206e6f74206f60008201527f776e6572206e6f7220617070726f766564000000000000000000000000000000602082015250565b61357e81612d09565b811461358957600080fd5b50565b61359581612d1b565b81146135a057600080fd5b50565b6135ac81612d27565b81146135b757600080fd5b50565b6135c381612d73565b81146135ce57600080fd5b5056fe416e204e465420772f20494420257320686173206265656e206d696e74656420746f2025734142434445464748494a4b4c4d4e4f505152535455565758595a6162636465666768696a6b6c6d6e6f707172737475767778797a303132333435363738392b2fa26469706673582212208106ef55de2e6f0ff3d3d88777f1082cf57b40cfb7e7292bd292c879b6a4981664736f6c634300080400333c73766720786d6c6e733d27687474703a2f2f7777772e77332e6f72672f323030302f73766727207072657365727665417370656374526174696f3d27784d696e594d696e206d656574272076696577426f783d273020302033353020333530273e3c7374796c653e2e62617365207b2066696c6c3a2077686974653b20666f6e742d66616d696c793a2073657269663b20666f6e742d73697a653a20323470783b207d3c2f7374796c653e3c726563742077696474683d273130302527206865696768743d2731303025272066696c6c3d27626c61636b27202f3e3c7465787420783d273530252720793d273530252720636c6173733d27626173652720646f6d696e616e742d626173656c696e653d276d6964646c652720746578742d616e63686f723d276d6964646c65273e",
  "linkReferences": {},
  "deployedLinkReferences": {}
}