{
  "_format": "hh-sol-artifact-1",
  "contractName": "MyEpicGame",
  "sourceName": "contracts/MyEpicGame.sol",
  "abi": [
    {
      "inputs": [
        {
          "internalType": "string[]",
          "name": "characterNames",
          "type": "string[]"
        },
        {
          "internalType": "string[]",
          "name": "characterImageURIs",
          "type": "string[]"
        },
        {
          "internalType": "uint256[]",
          "name": "characterHp",
          "type": "uint256[]"
        },
        {
          "internalType": "uint256[]",
          "name": "characterAttackDmg",
          "type": "uint256[]"
        },
        {
          "internalType": "string",
          "name": "bossName",
          "type": "string"
        },
        {
          "internalType": "string",
          "name": "bossImageURI",
          "type": "string"
        },
        {
          "internalType": "uint256",
          "name": "bossHp",
          "type": "uint256"
        },
        {
          "internalType": "uint256",
          "name": "bossAttackDamage",
          "type": "uint256"
        }
      ],
      "stateMutability": "nonpayable",
      "type": "constructor"
    },
    {
      "anonymous": false,
      "inputs": [
        {
          "indexed": true,
          "internalType": "address",
          "name": "owner",
          "type": "address"
        },
        {
          "indexed": true,
          "internalType": "address",
          "name": "approved",
          "type": "address"
        },
        {
          "indexed": true,
          "internalType": "uint256",
          "name": "tokenId",
          "type": "uint256"
        }
      ],
      "name": "Approval",
      "type": "event"
    },
    {
      "anonymous": false,
      "inputs": [
        {
          "indexed": true,
          "internalType": "address",
          "name": "owner",
          "type": "address"
        },
        {
          "indexed": true,
          "internalType": "address",
          "name": "operator",
          "type": "address"
        },
        {
          "indexed": false,
          "internalType": "bool",
          "name": "approved",
          "type": "bool"
        }
      ],
      "name": "ApprovalForAll",
      "type": "event"
    },
    {
      "anonymous": false,
      "inputs": [
        {
          "indexed": false,
          "internalType": "string",
          "name": "character",
          "type": "string"
        },
        {
          "indexed": false,
          "internalType": "uint256",
          "name": "bossDamage",
          "type": "uint256"
        },
        {
          "indexed": false,
          "internalType": "uint256",
          "name": "newBossHp",
          "type": "uint256"
        },
        {
          "indexed": false,
          "internalType": "uint256",
          "name": "playerDamage",
          "type": "uint256"
        },
        {
          "indexed": false,
          "internalType": "uint256",
          "name": "newPlayerHp",
          "type": "uint256"
        }
      ],
      "name": "AttackComplete",
      "type": "event"
    },
    {
      "anonymous": false,
      "inputs": [
        {
          "indexed": false,
          "internalType": "address",
          "name": "sender",
          "type": "address"
        },
        {
          "indexed": false,
          "internalType": "uint256",
          "name": "tokenId",
          "type": "uint256"
        },
        {
          "indexed": false,
          "internalType": "uint256",
          "name": "characterIndex",
          "type": "uint256"
        }
      ],
      "name": "CharacterNFTMinted",
      "type": "event"
    },
    {
      "anonymous": false,
      "inputs": [
        {
          "indexed": true,
          "internalType": "address",
          "name": "from",
          "type": "address"
        },
        {
          "indexed": true,
          "internalType": "address",
          "name": "to",
          "type": "address"
        },
        {
          "indexed": true,
          "internalType": "uint256",
          "name": "tokenId",
          "type": "uint256"
        }
      ],
      "name": "Transfer",
      "type": "event"
    },
    {
      "inputs": [
        {
          "internalType": "address",
          "name": "to",
          "type": "address"
        },
        {
          "internalType": "uint256",
          "name": "tokenId",
          "type": "uint256"
        }
      ],
      "name": "approve",
      "outputs": [],
      "stateMutability": "nonpayable",
      "type": "function"
    },
    {
      "inputs": [],
      "name": "attackBoss",
      "outputs": [],
      "stateMutability": "nonpayable",
      "type": "function"
    },
    {
      "inputs": [
        {
          "internalType": "address",
          "name": "owner",
          "type": "address"
        }
      ],
      "name": "balanceOf",
      "outputs": [
        {
          "internalType": "uint256",
          "name": "",
          "type": "uint256"
        }
      ],
      "stateMutability": "view",
      "type": "function"
    },
    {
      "inputs": [],
      "name": "bigBoss",
      "outputs": [
        {
          "internalType": "string",
          "name": "name",
          "type": "string"
        },
        {
          "internalType": "string",
          "name": "imageURI",
          "type": "string"
        },
        {
          "internalType": "uint256",
          "name": "hp",
          "type": "uint256"
        },
        {
          "internalType": "uint256",
          "name": "maxHp",
          "type": "uint256"
        },
        {
          "internalType": "uint256",
          "name": "attackDamage",
          "type": "uint256"
        }
      ],
      "stateMutability": "view",
      "type": "function"
    },
    {
      "inputs": [],
      "name": "checkIfUserHasNFT",
      "outputs": [
        {
          "components": [
            {
              "internalType": "uint256",
              "name": "characterIndex",
              "type": "uint256"
            },
            {
              "internalType": "string",
              "name": "name",
              "type": "string"
            },
            {
              "internalType": "string",
              "name": "imageURI",
              "type": "string"
            },
            {
              "internalType": "uint256",
              "name": "hp",
              "type": "uint256"
            },
            {
              "internalType": "uint256",
              "name": "maxHp",
              "type": "uint256"
            },
            {
              "internalType": "uint256",
              "name": "attackDamage",
              "type": "uint256"
            },
            {
              "internalType": "uint256",
              "name": "damageDealt",
              "type": "uint256"
            },
            {
              "internalType": "address",
              "name": "owner",
              "type": "address"
            }
          ],
          "internalType": "struct MyEpicGame.CharacterAttributes",
          "name": "",
          "type": "tuple"
        }
      ],
      "stateMutability": "view",
      "type": "function"
    },
    {
      "inputs": [],
      "name": "getAllDefaultCharacters",
      "outputs": [
        {
          "components": [
            {
              "internalType": "uint256",
              "name": "characterIndex",
              "type": "uint256"
            },
            {
              "internalType": "string",
              "name": "name",
              "type": "string"
            },
            {
              "internalType": "string",
              "name": "imageURI",
              "type": "string"
            },
            {
              "internalType": "uint256",
              "name": "hp",
              "type": "uint256"
            },
            {
              "internalType": "uint256",
              "name": "maxHp",
              "type": "uint256"
            },
            {
              "internalType": "uint256",
              "name": "attackDamage",
              "type": "uint256"
            },
            {
              "internalType": "uint256",
              "name": "damageDealt",
              "type": "uint256"
            },
            {
              "internalType": "address",
              "name": "owner",
              "type": "address"
            }
          ],
          "internalType": "struct MyEpicGame.CharacterAttributes[]",
          "name": "",
          "type": "tuple[]"
        }
      ],
      "stateMutability": "view",
      "type": "function"
    },
    {
      "inputs": [],
      "name": "getAllPlayers",
      "outputs": [
        {
          "components": [
            {
              "internalType": "uint256",
              "name": "characterIndex",
              "type": "uint256"
            },
            {
              "internalType": "string",
              "name": "name",
              "type": "string"
            },
            {
              "internalType": "string",
              "name": "imageURI",
              "type": "string"
            },
            {
              "internalType": "uint256",
              "name": "hp",
              "type": "uint256"
            },
            {
              "internalType": "uint256",
              "name": "maxHp",
              "type": "uint256"
            },
            {
              "internalType": "uint256",
              "name": "attackDamage",
              "type": "uint256"
            },
            {
              "internalType": "uint256",
              "name": "damageDealt",
              "type": "uint256"
            },
            {
              "internalType": "address",
              "name": "owner",
              "type": "address"
            }
          ],
          "internalType": "struct MyEpicGame.CharacterAttributes[]",
          "name": "",
          "type": "tuple[]"
        }
      ],
      "stateMutability": "view",
      "type": "function"
    },
    {
      "inputs": [
        {
          "internalType": "uint256",
          "name": "tokenId",
          "type": "uint256"
        }
      ],
      "name": "getApproved",
      "outputs": [
        {
          "internalType": "address",
          "name": "",
          "type": "address"
        }
      ],
      "stateMutability": "view",
      "type": "function"
    },
    {
      "inputs": [],
      "name": "getBigBoss",
      "outputs": [
        {
          "components": [
            {
              "internalType": "string",
              "name": "name",
              "type": "string"
            },
            {
              "internalType": "string",
              "name": "imageURI",
              "type": "string"
            },
            {
              "internalType": "uint256",
              "name": "hp",
              "type": "uint256"
            },
            {
              "internalType": "uint256",
              "name": "maxHp",
              "type": "uint256"
            },
            {
              "internalType": "uint256",
              "name": "attackDamage",
              "type": "uint256"
            }
          ],
          "internalType": "struct MyEpicGame.BigBoss",
          "name": "",
          "type": "tuple"
        }
      ],
      "stateMutability": "view",
      "type": "function"
    },
    {
      "inputs": [
        {
          "internalType": "address",
          "name": "owner",
          "type": "address"
        },
        {
          "internalType": "address",
          "name": "operator",
          "type": "address"
        }
      ],
      "name": "isApprovedForAll",
      "outputs": [
        {
          "internalType": "bool",
          "name": "",
          "type": "bool"
        }
      ],
      "stateMutability": "view",
      "type": "function"
    },
    {
      "inputs": [
        {
          "internalType": "uint256",
          "name": "_characterIndex",
          "type": "uint256"
        }
      ],
      "name": "mintCharacterNFT",
      "outputs": [],
      "stateMutability": "nonpayable",
      "type": "function"
    },
    {
      "inputs": [],
      "name": "name",
      "outputs": [
        {
          "internalType": "string",
          "name": "",
          "type": "string"
        }
      ],
      "stateMutability": "view",
      "type": "function"
    },
    {
      "inputs": [
        {
          "internalType": "uint256",
          "name": "",
          "type": "uint256"
        }
      ],
      "name": "nftHolderAttributes",
      "outputs": [
        {
          "internalType": "uint256",
          "name": "characterIndex",
          "type": "uint256"
        },
        {
          "internalType": "string",
          "name": "name",
          "type": "string"
        },
        {
          "internalType": "string",
          "name": "imageURI",
          "type": "string"
        },
        {
          "internalType": "uint256",
          "name": "hp",
          "type": "uint256"
        },
        {
          "internalType": "uint256",
          "name": "maxHp",
          "type": "uint256"
        },
        {
          "internalType": "uint256",
          "name": "attackDamage",
          "type": "uint256"
        },
        {
          "internalType": "uint256",
          "name": "damageDealt",
          "type": "uint256"
        },
        {
          "internalType": "address",
          "name": "owner",
          "type": "address"
        }
      ],
      "stateMutability": "view",
      "type": "function"
    },
    {
      "inputs": [
        {
          "internalType": "address",
          "name": "",
          "type": "address"
        }
      ],
      "name": "nftHolders",
      "outputs": [
        {
          "internalType": "uint256",
          "name": "",
          "type": "uint256"
        }
      ],
      "stateMutability": "view",
      "type": "function"
    },
    {
      "inputs": [
        {
          "internalType": "uint256",
          "name": "tokenId",
          "type": "uint256"
        }
      ],
      "name": "ownerOf",
      "outputs": [
        {
          "internalType": "address",
          "name": "",
          "type": "address"
        }
      ],
      "stateMutability": "view",
      "type": "function"
    },
    {
      "inputs": [
        {
          "internalType": "address",
          "name": "from",
          "type": "address"
        },
        {
          "internalType": "address",
          "name": "to",
          "type": "address"
        },
        {
          "internalType": "uint256",
          "name": "tokenId",
          "type": "uint256"
        }
      ],
      "name": "safeTransferFrom",
      "outputs": [],
      "stateMutability": "nonpayable",
      "type": "function"
    },
    {
      "inputs": [
        {
          "internalType": "address",
          "name": "from",
          "type": "address"
        },
        {
          "internalType": "address",
          "name": "to",
          "type": "address"
        },
        {
          "internalType": "uint256",
          "name": "tokenId",
          "type": "uint256"
        },
        {
          "internalType": "bytes",
          "name": "_data",
          "type": "bytes"
        }
      ],
      "name": "safeTransferFrom",
      "outputs": [],
      "stateMutability": "nonpayable",
      "type": "function"
    },
    {
      "inputs": [
        {
          "internalType": "address",
          "name": "operator",
          "type": "address"
        },
        {
          "internalType": "bool",
          "name": "approved",
          "type": "bool"
        }
      ],
      "name": "setApprovalForAll",
      "outputs": [],
      "stateMutability": "nonpayable",
      "type": "function"
    },
    {
      "inputs": [
        {
          "internalType": "bytes4",
          "name": "interfaceId",
          "type": "bytes4"
        }
      ],
      "name": "supportsInterface",
      "outputs": [
        {
          "internalType": "bool",
          "name": "",
          "type": "bool"
        }
      ],
      "stateMutability": "view",
      "type": "function"
    },
    {
      "inputs": [],
      "name": "symbol",
      "outputs": [
        {
          "internalType": "string",
          "name": "",
          "type": "string"
        }
      ],
      "stateMutability": "view",
      "type": "function"
    },
    {
      "inputs": [
        {
          "internalType": "uint256",
          "name": "_tokenId",
          "type": "uint256"
        }
      ],
      "name": "tokenURI",
      "outputs": [
        {
          "internalType": "string",
          "name": "",
          "type": "string"
        }
      ],
      "stateMutability": "view",
      "type": "function"
    },
    {
      "inputs": [
        {
          "internalType": "address",
          "name": "from",
          "type": "address"
        },
        {
          "internalType": "address",
          "name": "to",
          "type": "address"
        },
        {
          "internalType": "uint256",
          "name": "tokenId",
          "type": "uint256"
        }
      ],
      "name": "transferFrom",
      "outputs": [],
      "stateMutability": "nonpayable",
      "type": "function"
    }
  ],
  "bytecode": "0x60806040523480156200001157600080fd5b506040516200620d3803806200620d833981810160405281019062000037919062000b5b565b6040518060400160405280600681526020017f4865726f657300000000000000000000000000000000000000000000000000008152506040518060400160405280600481526020017f4845524f000000000000000000000000000000000000000000000000000000008152508160009080519060200190620000bb929190620008c3565b508060019080519060200190620000d4929190620008c3565b5050506040518060a0016040528085815260200184815260200183815260200183815260200182815250600b60008201518160000190805190602001906200011e929190620008c3565b5060208201518160010190805190602001906200013d929190620008c3565b50604082015181600201556060820151816003015560808201518160040155905050620002c06040518060600160405280602a8152602001620061e3602a9139600b60000180546200018f9062000ede565b80601f0160208091040260200160405190810160405280929190818152602001828054620001bd9062000ede565b80156200020e5780601f10620001e2576101008083540402835291602001916200020e565b820191906000526020600020905b815481529060010190602001808311620001f057829003601f168201915b5050505050600b60020154600b60010180546200022b9062000ede565b80601f0160208091040260200160405190810160405280929190818152602001828054620002599062000ede565b8015620002aa5780601f106200027e57610100808354040283529160200191620002aa565b820191906000526020600020905b8154815290600101906020018083116200028c57829003601f168201915b5050505050620007d860201b620022681760201c565b60005b8851811015620007b25760076040518061010001604052808381526020018b84815181106200031b577f4e487b7100000000000000000000000000000000000000000000000000000000600052603260045260246000fd5b602002602001015181526020018a848151811062000362577f4e487b7100000000000000000000000000000000000000000000000000000000600052603260045260246000fd5b60200260200101518152602001898481518110620003a9577f4e487b7100000000000000000000000000000000000000000000000000000000600052603260045260246000fd5b60200260200101518152602001898481518110620003f0577f4e487b7100000000000000000000000000000000000000000000000000000000600052603260045260246000fd5b6020026020010151815260200188848151811062000437577f4e487b7100000000000000000000000000000000000000000000000000000000600052603260045260246000fd5b60200260200101518152602001600081526020013373ffffffffffffffffffffffffffffffffffffffff168152509080600181540180825580915050600190039060005260206000209060080201600090919091909150600082015181600001556020820151816001019080519060200190620004b6929190620008c3565b506040820151816002019080519060200190620004d5929190620008c3565b50606082015181600301556080820151816004015560a0820151816005015560c0820151816006015560e08201518160070160006101000a81548173ffffffffffffffffffffffffffffffffffffffff021916908373ffffffffffffffffffffffffffffffffffffffff160217905550505060006007828154811062000584577f4e487b7100000000000000000000000000000000000000000000000000000000600052603260045260246000fd5b90600052602060002090600802016040518061010001604052908160008201548152602001600182018054620005ba9062000ede565b80601f0160208091040260200160405190810160405280929190818152602001828054620005e89062000ede565b8015620006395780601f106200060d5761010080835404028352916020019162000639565b820191906000526020600020905b8154815290600101906020018083116200061b57829003601f168201915b50505050508152602001600282018054620006549062000ede565b80601f0160208091040260200160405190810160405280929190818152602001828054620006829062000ede565b8015620006d35780601f10620006a757610100808354040283529160200191620006d3565b820191906000526020600020905b815481529060010190602001808311620006b557829003601f168201915b50505050508152602001600382015481526020016004820154815260200160058201548152602001600682015481526020016007820160009054906101000a900473ffffffffffffffffffffffffffffffffffffffff1673ffffffffffffffffffffffffffffffffffffffff1673ffffffffffffffffffffffffffffffffffffffff168152505090506200079a604051806060016040528060258152602001620061be60259139826020015183606001518460400151620007d860201b620022681760201c565b50600181620007aa919062000e41565b9050620002c3565b50620007ca60066200088460201b6200230a1760201c565b505050505050505062001002565b6200087e84848484604051602401620007f5949392919062000d06565b6040516020818303038152906040527f8d142cdd000000000000000000000000000000000000000000000000000000007bffffffffffffffffffffffffffffffffffffffffffffffffffffffff19166020820180517bffffffffffffffffffffffffffffffffffffffffffffffffffffffff83818316178352505050506200089a60201b60201c565b50505050565b6001816000016000828254019250508190555050565b60008151905060006a636f6e736f6c652e6c6f679050602083016000808483855afa5050505050565b828054620008d19062000ede565b90600052602060002090601f016020900481019282620008f5576000855562000941565b82601f106200091057805160ff191683800117855562000941565b8280016001018555821562000941579182015b828111156200094057825182559160200191906001019062000923565b5b50905062000950919062000954565b5090565b5b808211156200096f57600081600090555060010162000955565b5090565b60006200098a620009848462000d91565b62000d68565b90508083825260208201905082856020860282011115620009aa57600080fd5b60005b85811015620009f957815167ffffffffffffffff811115620009ce57600080fd5b808601620009dd898262000b17565b85526020850194506020840193505050600181019050620009ad565b5050509392505050565b600062000a1a62000a148462000dc0565b62000d68565b9050808382526020820190508285602086028201111562000a3a57600080fd5b60005b8581101562000a6e578162000a53888262000b44565b84526020840193506020830192505060018101905062000a3d565b5050509392505050565b600062000a8f62000a898462000def565b62000d68565b90508281526020810184848401111562000aa857600080fd5b62000ab584828562000ea8565b509392505050565b600082601f83011262000acf57600080fd5b815162000ae184826020860162000973565b91505092915050565b600082601f83011262000afc57600080fd5b815162000b0e84826020860162000a03565b91505092915050565b600082601f83011262000b2957600080fd5b815162000b3b84826020860162000a78565b91505092915050565b60008151905062000b558162000fe8565b92915050565b600080600080600080600080610100898b03121562000b7957600080fd5b600089015167ffffffffffffffff81111562000b9457600080fd5b62000ba28b828c0162000abd565b985050602089015167ffffffffffffffff81111562000bc057600080fd5b62000bce8b828c0162000abd565b975050604089015167ffffffffffffffff81111562000bec57600080fd5b62000bfa8b828c0162000aea565b965050606089015167ffffffffffffffff81111562000c1857600080fd5b62000c268b828c0162000aea565b955050608089015167ffffffffffffffff81111562000c4457600080fd5b62000c528b828c0162000b17565b94505060a089015167ffffffffffffffff81111562000c7057600080fd5b62000c7e8b828c0162000b17565b93505060c062000c918b828c0162000b44565b92505060e062000ca48b828c0162000b44565b9150509295985092959890939650565b600062000cc18262000e25565b62000ccd818562000e30565b935062000cdf81856020860162000ea8565b62000cea8162000fd7565b840191505092915050565b62000d008162000e9e565b82525050565b6000608082019050818103600083015262000d22818762000cb4565b9050818103602083015262000d38818662000cb4565b905062000d49604083018562000cf5565b818103606083015262000d5d818462000cb4565b905095945050505050565b600062000d7462000d87565b905062000d82828262000f14565b919050565b6000604051905090565b600067ffffffffffffffff82111562000daf5762000dae62000fa8565b5b602082029050602081019050919050565b600067ffffffffffffffff82111562000dde5762000ddd62000fa8565b5b602082029050602081019050919050565b600067ffffffffffffffff82111562000e0d5762000e0c62000fa8565b5b62000e188262000fd7565b9050602081019050919050565b600081519050919050565b600082825260208201905092915050565b600062000e4e8262000e9e565b915062000e5b8362000e9e565b9250827fffffffffffffffffffffffffffffffffffffffffffffffffffffffffffffffff0382111562000e935762000e9262000f4a565b5b828201905092915050565b6000819050919050565b60005b8381101562000ec857808201518184015260208101905062000eab565b8381111562000ed8576000848401525b50505050565b6000600282049050600182168062000ef757607f821691505b6020821081141562000f0e5762000f0d62000f79565b5b50919050565b62000f1f8262000fd7565b810181811067ffffffffffffffff8211171562000f415762000f4062000fa8565b5b80604052505050565b7f4e487b7100000000000000000000000000000000000000000000000000000000600052601160045260246000fd5b7f4e487b7100000000000000000000000000000000000000000000000000000000600052602260045260246000fd5b7f4e487b7100000000000000000000000000000000000000000000000000000000600052604160045260246000fd5b6000601f19601f8301169050919050565b62000ff38162000e9e565b811462000fff57600080fd5b50565b6151ac80620010126000396000f3fe608060405234801561001057600080fd5b50600436106101425760003560e01c806398da4c95116100b8578063c87b56dd1161007c578063c87b56dd14610394578063c8cf27f4146103c4578063d4f24c5b146103e2578063e985e9c5146103ec578063efa1c4821461041c578063f8b81ef71461043a57610142565b806398da4c95146102e5578063a22cb4651461031c578063a9c3267914610338578063b88d4fde1461035a578063b953084e1461037657610142565b806323b872dd1161010a57806323b872dd146101ff57806342842e0e1461021b5780636352211e1461023757806370a08231146102675780637df124a11461029757806395d89b41146102c757610142565b806301ffc9a7146101475780630665f9611461017757806306fdde0314610195578063081812fc146101b3578063095ea7b3146101e3575b600080fd5b610161600480360381019061015c919061377d565b610456565b60405161016e91906140bf565b60405180910390f35b61017f610538565b60405161018c91906144e2565b60405180910390f35b61019d610694565b6040516101aa91906140da565b60405180910390f35b6101cd60048036038101906101c891906137cf565b610726565b6040516101da9190613fff565b60405180910390f35b6101fd60048036038101906101f89190613741565b6107ab565b005b6102196004803603810190610214919061363b565b6108c3565b005b6102356004803603810190610230919061363b565b610923565b005b610251600480360381019061024c91906137cf565b610943565b60405161025e9190613fff565b60405180910390f35b610281600480360381019061027c91906135d6565b6109f5565b60405161028e9190614526565b60405180910390f35b6102b160048036038101906102ac91906135d6565b610aad565b6040516102be9190614526565b60405180910390f35b6102cf610ac5565b6040516102dc91906140da565b60405180910390f35b6102ff60048036038101906102fa91906137cf565b610b57565b604051610313989796959493929190614541565b60405180910390f35b61033660048036038101906103319190613705565b610ccf565b005b610340610ce5565b6040516103519594939291906141d9565b60405180910390f35b610374600480360381019061036f919061368a565b610e19565b005b61037e610e7b565b60405161038b919061409d565b60405180910390f35b6103ae60048036038101906103a991906137cf565b611087565b6040516103bb91906140da565b60405180910390f35b6103cc611303565b6040516103d99190614504565b60405180910390f35b6103ea61153c565b005b610406600480360381019061040191906135ff565b61191d565b60405161041391906140bf565b60405180910390f35b6104246119b1565b604051610431919061409d565b60405180910390f35b610454600480360381019061044f91906137cf565b611d14565b005b60007f80ac58cd000000000000000000000000000000000000000000000000000000007bffffffffffffffffffffffffffffffffffffffffffffffffffffffff1916827bffffffffffffffffffffffffffffffffffffffffffffffffffffffff1916148061052157507f5b5e139f000000000000000000000000000000000000000000000000000000007bffffffffffffffffffffffffffffffffffffffffffffffffffffffff1916827bffffffffffffffffffffffffffffffffffffffffffffffffffffffff1916145b80610531575061053082612320565b5b9050919050565b6105406133d8565b600b6040518060a001604052908160008201805461055d90614890565b80601f016020809104026020016040519081016040528092919081815260200182805461058990614890565b80156105d65780601f106105ab576101008083540402835291602001916105d6565b820191906000526020600020905b8154815290600101906020018083116105b957829003601f168201915b505050505081526020016001820180546105ef90614890565b80601f016020809104026020016040519081016040528092919081815260200182805461061b90614890565b80156106685780601f1061063d57610100808354040283529160200191610668565b820191906000526020600020905b81548152906001019060200180831161064b57829003601f168201915b505050505081526020016002820154815260200160038201548152602001600482015481525050905090565b6060600080546106a390614890565b80601f01602080910402602001604051908101604052809291908181526020018280546106cf90614890565b801561071c5780601f106106f15761010080835404028352916020019161071c565b820191906000526020600020905b8154815290600101906020018083116106ff57829003601f168201915b5050505050905090565b60006107318261238a565b610770576040517f08c379a000000000000000000000000000000000000000000000000000000000815260040161076790614462565b60405180910390fd5b6004600083815260200190815260200160002060009054906101000a900473ffffffffffffffffffffffffffffffffffffffff169050919050565b60006107b682610943565b90508073ffffffffffffffffffffffffffffffffffffffff168373ffffffffffffffffffffffffffffffffffffffff161415610827576040517f08c379a000000000000000000000000000000000000000000000000000000000815260040161081e90614482565b60405180910390fd5b8073ffffffffffffffffffffffffffffffffffffffff166108466123f6565b73ffffffffffffffffffffffffffffffffffffffff16148061087557506108748161086f6123f6565b61191d565b5b6108b4576040517f08c379a00000000000000000000000000000000000000000000000000000000081526004016108ab906143e2565b60405180910390fd5b6108be83836123fe565b505050565b6108d46108ce6123f6565b826124b7565b610913576040517f08c379a000000000000000000000000000000000000000000000000000000000815260040161090a906144a2565b60405180910390fd5b61091e838383612595565b505050565b61093e83838360405180602001604052806000815250610e19565b505050565b6000806002600084815260200190815260200160002060009054906101000a900473ffffffffffffffffffffffffffffffffffffffff169050600073ffffffffffffffffffffffffffffffffffffffff168173ffffffffffffffffffffffffffffffffffffffff1614156109ec576040517f08c379a00000000000000000000000000000000000000000000000000000000081526004016109e390614422565b60405180910390fd5b80915050919050565b60008073ffffffffffffffffffffffffffffffffffffffff168273ffffffffffffffffffffffffffffffffffffffff161415610a66576040517f08c379a0000000000000000000000000000000000000000000000000000000008152600401610a5d90614402565b60405180910390fd5b600360008373ffffffffffffffffffffffffffffffffffffffff1673ffffffffffffffffffffffffffffffffffffffff168152602001908152602001600020549050919050565b60096020528060005260406000206000915090505481565b606060018054610ad490614890565b80601f0160208091040260200160405190810160405280929190818152602001828054610b0090614890565b8015610b4d5780601f10610b2257610100808354040283529160200191610b4d565b820191906000526020600020905b815481529060010190602001808311610b3057829003601f168201915b5050505050905090565b6008602052806000526040600020600091509050806000015490806001018054610b8090614890565b80601f0160208091040260200160405190810160405280929190818152602001828054610bac90614890565b8015610bf95780601f10610bce57610100808354040283529160200191610bf9565b820191906000526020600020905b815481529060010190602001808311610bdc57829003601f168201915b505050505090806002018054610c0e90614890565b80601f0160208091040260200160405190810160405280929190818152602001828054610c3a90614890565b8015610c875780601f10610c5c57610100808354040283529160200191610c87565b820191906000526020600020905b815481529060010190602001808311610c6a57829003601f168201915b5050505050908060030154908060040154908060050154908060060154908060070160009054906101000a900473ffffffffffffffffffffffffffffffffffffffff16905088565b610ce1610cda6123f6565b83836127fc565b5050565b600b806000018054610cf690614890565b80601f0160208091040260200160405190810160405280929190818152602001828054610d2290614890565b8015610d6f5780601f10610d4457610100808354040283529160200191610d6f565b820191906000526020600020905b815481529060010190602001808311610d5257829003601f168201915b505050505090806001018054610d8490614890565b80601f0160208091040260200160405190810160405280929190818152602001828054610db090614890565b8015610dfd5780601f10610dd257610100808354040283529160200191610dfd565b820191906000526020600020905b815481529060010190602001808311610de057829003601f168201915b5050505050908060020154908060030154908060040154905085565b610e2a610e246123f6565b836124b7565b610e69576040517f08c379a0000000000000000000000000000000000000000000000000000000008152600401610e60906144a2565b60405180910390fd5b610e7584848484612969565b50505050565b60606007805480602002602001604051908101604052809291908181526020016000905b8282101561107e57838290600052602060002090600802016040518061010001604052908160008201548152602001600182018054610edd90614890565b80601f0160208091040260200160405190810160405280929190818152602001828054610f0990614890565b8015610f565780601f10610f2b57610100808354040283529160200191610f56565b820191906000526020600020905b815481529060010190602001808311610f3957829003601f168201915b50505050508152602001600282018054610f6f90614890565b80601f0160208091040260200160405190810160405280929190818152602001828054610f9b90614890565b8015610fe85780601f10610fbd57610100808354040283529160200191610fe8565b820191906000526020600020905b815481529060010190602001808311610fcb57829003601f168201915b50505050508152602001600382015481526020016004820154815260200160058201548152602001600682015481526020016007820160009054906101000a900473ffffffffffffffffffffffffffffffffffffffff1673ffffffffffffffffffffffffffffffffffffffff1673ffffffffffffffffffffffffffffffffffffffff168152505081526020019060010190610e9f565b50505050905090565b606060006008600084815260200190815260200160002060405180610100016040529081600082015481526020016001820180546110c490614890565b80601f01602080910402602001604051908101604052809291908181526020018280546110f090614890565b801561113d5780601f106111125761010080835404028352916020019161113d565b820191906000526020600020905b81548152906001019060200180831161112057829003601f168201915b5050505050815260200160028201805461115690614890565b80601f016020809104026020016040519081016040528092919081815260200182805461118290614890565b80156111cf5780601f106111a4576101008083540402835291602001916111cf565b820191906000526020600020905b8154815290600101906020018083116111b257829003601f168201915b50505050508152602001600382015481526020016004820154815260200160058201548152602001600682015481526020016007820160009054906101000a900473ffffffffffffffffffffffffffffffffffffffff1673ffffffffffffffffffffffffffffffffffffffff1673ffffffffffffffffffffffffffffffffffffffff16815250509050600061126782606001516129c5565b9050600061127883608001516129c5565b905060006112898460a001516129c5565b905060006112cf856020015161129e896129c5565b87604001518787876040516020016112bb96959493929190613f38565b604051602081830303815290604052612b72565b90506000816040516020016112e49190613fdd565b6040516020818303038152906040529050809650505050505050919050565b61130b613407565b6000600960003373ffffffffffffffffffffffffffffffffffffffff1673ffffffffffffffffffffffffffffffffffffffff168152602001908152602001600020549050600081111561152b5760086000828152602001908152602001600020604051806101000160405290816000820154815260200160018201805461139190614890565b80601f01602080910402602001604051908101604052809291908181526020018280546113bd90614890565b801561140a5780601f106113df5761010080835404028352916020019161140a565b820191906000526020600020905b8154815290600101906020018083116113ed57829003601f168201915b5050505050815260200160028201805461142390614890565b80601f016020809104026020016040519081016040528092919081815260200182805461144f90614890565b801561149c5780601f106114715761010080835404028352916020019161149c565b820191906000526020600020905b81548152906001019060200180831161147f57829003601f168201915b50505050508152602001600382015481526020016004820154815260200160058201548152602001600682015481526020016007820160009054906101000a900473ffffffffffffffffffffffffffffffffffffffff1673ffffffffffffffffffffffffffffffffffffffff1673ffffffffffffffffffffffffffffffffffffffff1681525050915050611539565b611533613407565b80925050505b90565b6000600960003373ffffffffffffffffffffffffffffffffffffffff1673ffffffffffffffffffffffffffffffffffffffff16815260200190815260200160002054905060008060006008600085815260200190815260200160002090506116526040518060600160405280603c815260200161513b603c91398260010180546115c590614890565b80601f01602080910402602001604051908101604052809291908181526020018280546115f190614890565b801561163e5780601f106116135761010080835404028352916020019161163e565b820191906000526020600020905b81548152906001019060200180831161162157829003601f168201915b505050505083600301548460050154612d11565b61172a6040518060400160405280601b81526020017f426f73732025732068617320257320485020616e642025732041440000000000815250600b600001805461169b90614890565b80601f01602080910402602001604051908101604052809291908181526020018280546116c790614890565b80156117145780601f106116e957610100808354040283529160200191611714565b820191906000526020600020905b8154815290600101906020018083116116f757829003601f168201915b5050505050600b60020154600b60040154612d11565b6000816003015411611771576040517f08c379a0000000000000000000000000000000000000000000000000000000008152600401611768906144c2565b60405180910390fd5b6000600b60020154116117b9576040517f08c379a00000000000000000000000000000000000000000000000000000000081526004016117b090614322565b60405180910390fd5b8060050154600b6002015410156117e257600b6002015492506000600b60020181905550611808565b806005015492508060050154600b600201546117fe91906147a6565b600b600201819055505b8281600601600082825461181c91906146c5565b925050819055506000600b60020154111561187f57600b600401548160030154101561185857806003015491506000816003018190555061187e565b600b600401549150600b60040154816003015461187591906147a6565b81600301819055505b5b6118a660405180606001604052806025815260200161508060259139600b60020154612db3565b6118cc6040518060600160405280602881526020016150e5602891398260030154612db3565b7fa4727e0f48b45c8bb4a43158233be8dc2a647578dfa523cbc7133d08907490678160010184600b6002015485856003015460405161190f9594939291906142a8565b60405180910390a150505050565b6000600560008473ffffffffffffffffffffffffffffffffffffffff1673ffffffffffffffffffffffffffffffffffffffff16815260200190815260200160002060008373ffffffffffffffffffffffffffffffffffffffff1673ffffffffffffffffffffffffffffffffffffffff16815260200190815260200160002060009054906101000a900460ff16905092915050565b60606000600a8054905067ffffffffffffffff8111156119fa577f4e487b7100000000000000000000000000000000000000000000000000000000600052604160045260246000fd5b604051908082528060200260200182016040528015611a3357816020015b611a20613407565b815260200190600190039081611a185790505b50905060005b600a80549050811015611d0c576008600060096000600a8581548110611a88577f4e487b7100000000000000000000000000000000000000000000000000000000600052603260045260246000fd5b9060005260206000200160009054906101000a900473ffffffffffffffffffffffffffffffffffffffff1673ffffffffffffffffffffffffffffffffffffffff1673ffffffffffffffffffffffffffffffffffffffff1681526020019081526020016000205481526020019081526020016000206040518061010001604052908160008201548152602001600182018054611b2290614890565b80601f0160208091040260200160405190810160405280929190818152602001828054611b4e90614890565b8015611b9b5780601f10611b7057610100808354040283529160200191611b9b565b820191906000526020600020905b815481529060010190602001808311611b7e57829003601f168201915b50505050508152602001600282018054611bb490614890565b80601f0160208091040260200160405190810160405280929190818152602001828054611be090614890565b8015611c2d5780601f10611c0257610100808354040283529160200191611c2d565b820191906000526020600020905b815481529060010190602001808311611c1057829003601f168201915b50505050508152602001600382015481526020016004820154815260200160058201548152602001600682015481526020016007820160009054906101000a900473ffffffffffffffffffffffffffffffffffffffff1673ffffffffffffffffffffffffffffffffffffffff1673ffffffffffffffffffffffffffffffffffffffff1681525050828281518110611ced577f4e487b7100000000000000000000000000000000000000000000000000000000600052603260045260246000fd5b6020026020010181905250600181611d0591906146c5565b9050611a39565b508091505090565b6000611d206006612e4f565b9050611d2c3382612e5d565b60405180610100016040528083815260200160078481548110611d78577f4e487b7100000000000000000000000000000000000000000000000000000000600052603260045260246000fd5b90600052602060002090600802016001018054611d9490614890565b80601f0160208091040260200160405190810160405280929190818152602001828054611dc090614890565b8015611e0d5780601f10611de257610100808354040283529160200191611e0d565b820191906000526020600020905b815481529060010190602001808311611df057829003601f168201915b5050505050815260200160078481548110611e51577f4e487b7100000000000000000000000000000000000000000000000000000000600052603260045260246000fd5b90600052602060002090600802016002018054611e6d90614890565b80601f0160208091040260200160405190810160405280929190818152602001828054611e9990614890565b8015611ee65780601f10611ebb57610100808354040283529160200191611ee6565b820191906000526020600020905b815481529060010190602001808311611ec957829003601f168201915b5050505050815260200160078481548110611f2a577f4e487b7100000000000000000000000000000000000000000000000000000000600052603260045260246000fd5b906000526020600020906008020160030154815260200160078481548110611f7b577f4e487b7100000000000000000000000000000000000000000000000000000000600052603260045260246000fd5b906000526020600020906008020160040154815260200160078481548110611fcc577f4e487b7100000000000000000000000000000000000000000000000000000000600052603260045260246000fd5b9060005260206000209060080201600501548152602001600081526020013373ffffffffffffffffffffffffffffffffffffffff168152506008600083815260200190815260200160002060008201518160000155602082015181600101908051906020019061203d929190613462565b50604082015181600201908051906020019061205a929190613462565b50606082015181600301556080820151816004015560a0820151816005015560c0820151816006015560e08201518160070160006101000a81548173ffffffffffffffffffffffffffffffffffffffff021916908373ffffffffffffffffffffffffffffffffffffffff1602179055509050506120f06040518060600160405280602e815260200161510d602e91398284612e7b565b6000600960003373ffffffffffffffffffffffffffffffffffffffff1673ffffffffffffffffffffffffffffffffffffffff1681526020019081526020016000205414156121db576121776040518060400160405280601b81526020017f50757368696e6720746f206c6973206f66206f776e657273202573000000000081525033612f1a565b600a339080600181540180825580915050600190039060005260206000200160009091909190916101000a81548173ffffffffffffffffffffffffffffffffffffffff021916908373ffffffffffffffffffffffffffffffffffffffff1602179055505b80600960003373ffffffffffffffffffffffffffffffffffffffff1673ffffffffffffffffffffffffffffffffffffffff16815260200190815260200160002081905550612229600661230a565b7f4bc303fd457a97b4691b9af582ce71868a3d258638c8d4f8c60988a0f0bfb8cd33828460405161225c93929190614066565b60405180910390a15050565b61230484848484604051602401612282949392919061412c565b6040516020818303038152906040527f8d142cdd000000000000000000000000000000000000000000000000000000007bffffffffffffffffffffffffffffffffffffffffffffffffffffffff19166020820180517bffffffffffffffffffffffffffffffffffffffffffffffffffffffff8381831617835250505050612fb6565b50505050565b6001816000016000828254019250508190555050565b60007f01ffc9a7000000000000000000000000000000000000000000000000000000007bffffffffffffffffffffffffffffffffffffffffffffffffffffffff1916827bffffffffffffffffffffffffffffffffffffffffffffffffffffffff1916149050919050565b60008073ffffffffffffffffffffffffffffffffffffffff166002600084815260200190815260200160002060009054906101000a900473ffffffffffffffffffffffffffffffffffffffff1673ffffffffffffffffffffffffffffffffffffffff1614159050919050565b600033905090565b816004600083815260200190815260200160002060006101000a81548173ffffffffffffffffffffffffffffffffffffffff021916908373ffffffffffffffffffffffffffffffffffffffff160217905550808273ffffffffffffffffffffffffffffffffffffffff1661247183610943565b73ffffffffffffffffffffffffffffffffffffffff167f8c5be1e5ebec7d5bd14f71427d1e84f3dd0314c0f7b2291e5b200ac8c7c3b92560405160405180910390a45050565b60006124c28261238a565b612501576040517f08c379a00000000000000000000000000000000000000000000000000000000081526004016124f8906143c2565b60405180910390fd5b600061250c83610943565b90508073ffffffffffffffffffffffffffffffffffffffff168473ffffffffffffffffffffffffffffffffffffffff16148061257b57508373ffffffffffffffffffffffffffffffffffffffff1661256384610726565b73ffffffffffffffffffffffffffffffffffffffff16145b8061258c575061258b818561191d565b5b91505092915050565b8273ffffffffffffffffffffffffffffffffffffffff166125b582610943565b73ffffffffffffffffffffffffffffffffffffffff161461260b576040517f08c379a000000000000000000000000000000000000000000000000000000000815260040161260290614342565b60405180910390fd5b600073ffffffffffffffffffffffffffffffffffffffff168273ffffffffffffffffffffffffffffffffffffffff16141561267b576040517f08c379a000000000000000000000000000000000000000000000000000000000815260040161267290614382565b60405180910390fd5b612686838383612fdf565b6126916000826123fe565b6001600360008573ffffffffffffffffffffffffffffffffffffffff1673ffffffffffffffffffffffffffffffffffffffff16815260200190815260200160002060008282546126e191906147a6565b925050819055506001600360008473ffffffffffffffffffffffffffffffffffffffff1673ffffffffffffffffffffffffffffffffffffffff168152602001908152602001600020600082825461273891906146c5565b92505081905550816002600083815260200190815260200160002060006101000a81548173ffffffffffffffffffffffffffffffffffffffff021916908373ffffffffffffffffffffffffffffffffffffffff160217905550808273ffffffffffffffffffffffffffffffffffffffff168473ffffffffffffffffffffffffffffffffffffffff167fddf252ad1be2c89b69c2b068fc378daa952ba7f163c4a11628f55a4df523b3ef60405160405180910390a46127f7838383612fe4565b505050565b8173ffffffffffffffffffffffffffffffffffffffff168373ffffffffffffffffffffffffffffffffffffffff16141561286b576040517f08c379a0000000000000000000000000000000000000000000000000000000008152600401612862906143a2565b60405180910390fd5b80600560008573ffffffffffffffffffffffffffffffffffffffff1673ffffffffffffffffffffffffffffffffffffffff16815260200190815260200160002060008473ffffffffffffffffffffffffffffffffffffffff1673ffffffffffffffffffffffffffffffffffffffff16815260200190815260200160002060006101000a81548160ff0219169083151502179055508173ffffffffffffffffffffffffffffffffffffffff168373ffffffffffffffffffffffffffffffffffffffff167f17307eab39ab6107e8899845ad3d59bd9653f200f220920489ca2b5937696c318360405161295c91906140bf565b60405180910390a3505050565b612974848484612595565b61298084848484612fe9565b6129bf576040517f08c379a00000000000000000000000000000000000000000000000000000000081526004016129b690614302565b60405180910390fd5b50505050565b60606000821415612a0d576040518060400160405280600181526020017f30000000000000000000000000000000000000000000000000000000000000008152509050612b6d565b600082905060005b60008214612a3f578080612a28906148f3565b915050600a82612a38919061471b565b9150612a15565b60008167ffffffffffffffff811115612a81577f4e487b7100000000000000000000000000000000000000000000000000000000600052604160045260246000fd5b6040519080825280601f01601f191660200182016040528015612ab35781602001600182028036833780820191505090505b5090505b60008514612b6657600182612acc91906147a6565b9150600a85612adb919061493c565b6030612ae791906146c5565b60f81b818381518110612b23577f4e487b7100000000000000000000000000000000000000000000000000000000600052603260045260246000fd5b60200101907effffffffffffffffffffffffffffffffffffffffffffffffffffffffffffff1916908160001a905350600a85612b5f919061471b565b9450612ab7565b8093505050505b919050565b6060600082511415612b9557604051806020016040528060008152509050612d0c565b60006040518060600160405280604081526020016150a56040913990506000600360028551612bc491906146c5565b612bce919061471b565b6004612bda919061474c565b90506000602082612beb91906146c5565b67ffffffffffffffff811115612c2a577f4e487b7100000000000000000000000000000000000000000000000000000000600052604160045260246000fd5b6040519080825280601f01601f191660200182016040528015612c5c5781602001600182028036833780820191505090505b509050818152600183018586518101602084015b81831015612ccb576003830192508251603f8160121c168501518253600182019150603f81600c1c168501518253600182019150603f8160061c168501518253600182019150603f8116850151825360018201915050612c70565b600389510660018114612ce55760028114612cf557612d00565b613d3d60f01b6002830352612d00565b603d60f81b60018303525b50505050508093505050505b919050565b612dad84848484604051602401612d2b9493929190614186565b6040516020818303038152906040527fd5cf17d0000000000000000000000000000000000000000000000000000000007bffffffffffffffffffffffffffffffffffffffffffffffffffffffff19166020820180517bffffffffffffffffffffffffffffffffffffffffffffffffffffffff8381831617835250505050612fb6565b50505050565b612e4b8282604051602401612dc992919061423a565b6040516020818303038152906040527f9710a9d0000000000000000000000000000000000000000000000000000000007bffffffffffffffffffffffffffffffffffffffffffffffffffffffff19166020820180517bffffffffffffffffffffffffffffffffffffffffffffffffffffffff8381831617835250505050612fb6565b5050565b600081600001549050919050565b612e77828260405180602001604052806000815250613180565b5050565b612f15838383604051602401612e939392919061426a565b6040516020818303038152906040527f969cdd03000000000000000000000000000000000000000000000000000000007bffffffffffffffffffffffffffffffffffffffffffffffffffffffff19166020820180517bffffffffffffffffffffffffffffffffffffffffffffffffffffffff8381831617835250505050612fb6565b505050565b612fb28282604051602401612f309291906140fc565b6040516020818303038152906040527f319af333000000000000000000000000000000000000000000000000000000007bffffffffffffffffffffffffffffffffffffffffffffffffffffffff19166020820180517bffffffffffffffffffffffffffffffffffffffffffffffffffffffff8381831617835250505050612fb6565b5050565b60008151905060006a636f6e736f6c652e6c6f679050602083016000808483855afa5050505050565b505050565b505050565b600061300a8473ffffffffffffffffffffffffffffffffffffffff166131db565b15613173578373ffffffffffffffffffffffffffffffffffffffff1663150b7a026130336123f6565b8786866040518563ffffffff1660e01b8152600401613055949392919061401a565b602060405180830381600087803b15801561306f57600080fd5b505af19250505080156130a057506040513d601f19601f8201168201806040525081019061309d91906137a6565b60015b613123573d80600081146130d0576040519150601f19603f3d011682016040523d82523d6000602084013e6130d5565b606091505b5060008151141561311b576040517f08c379a000000000000000000000000000000000000000000000000000000000815260040161311290614302565b60405180910390fd5b805181602001fd5b63150b7a0260e01b7bffffffffffffffffffffffffffffffffffffffffffffffffffffffff1916817bffffffffffffffffffffffffffffffffffffffffffffffffffffffff191614915050613178565b600190505b949350505050565b61318a83836131fe565b6131976000848484612fe9565b6131d6576040517f08c379a00000000000000000000000000000000000000000000000000000000081526004016131cd90614302565b60405180910390fd5b505050565b6000808273ffffffffffffffffffffffffffffffffffffffff163b119050919050565b600073ffffffffffffffffffffffffffffffffffffffff168273ffffffffffffffffffffffffffffffffffffffff16141561326e576040517f08c379a000000000000000000000000000000000000000000000000000000000815260040161326590614442565b60405180910390fd5b6132778161238a565b156132b7576040517f08c379a00000000000000000000000000000000000000000000000000000000081526004016132ae90614362565b60405180910390fd5b6132c360008383612fdf565b6001600360008473ffffffffffffffffffffffffffffffffffffffff1673ffffffffffffffffffffffffffffffffffffffff168152602001908152602001600020600082825461331391906146c5565b92505081905550816002600083815260200190815260200160002060006101000a81548173ffffffffffffffffffffffffffffffffffffffff021916908373ffffffffffffffffffffffffffffffffffffffff160217905550808273ffffffffffffffffffffffffffffffffffffffff16600073ffffffffffffffffffffffffffffffffffffffff167fddf252ad1be2c89b69c2b068fc378daa952ba7f163c4a11628f55a4df523b3ef60405160405180910390a46133d460008383612fe4565b5050565b6040518060a0016040528060608152602001606081526020016000815260200160008152602001600081525090565b60405180610100016040528060008152602001606081526020016060815260200160008152602001600081526020016000815260200160008152602001600073ffffffffffffffffffffffffffffffffffffffff1681525090565b82805461346e90614890565b90600052602060002090601f01602090048101928261349057600085556134d7565b82601f106134a957805160ff19168380011785556134d7565b828001600101855582156134d7579182015b828111156134d65782518255916020019190600101906134bb565b5b5090506134e491906134e8565b5090565b5b808211156135015760008160009055506001016134e9565b5090565b6000613518613513846145f2565b6145cd565b90508281526020810184848401111561353057600080fd5b61353b84828561484e565b509392505050565b60008135905061355281615023565b92915050565b6000813590506135678161503a565b92915050565b60008135905061357c81615051565b92915050565b60008151905061359181615051565b92915050565b600082601f8301126135a857600080fd5b81356135b8848260208601613505565b91505092915050565b6000813590506135d081615068565b92915050565b6000602082840312156135e857600080fd5b60006135f684828501613543565b91505092915050565b6000806040838503121561361257600080fd5b600061362085828601613543565b925050602061363185828601613543565b9150509250929050565b60008060006060848603121561365057600080fd5b600061365e86828701613543565b935050602061366f86828701613543565b9250506040613680868287016135c1565b9150509250925092565b600080600080608085870312156136a057600080fd5b60006136ae87828801613543565b94505060206136bf87828801613543565b93505060406136d0878288016135c1565b925050606085013567ffffffffffffffff8111156136ed57600080fd5b6136f987828801613597565b91505092959194509250565b6000806040838503121561371857600080fd5b600061372685828601613543565b925050602061373785828601613558565b9150509250929050565b6000806040838503121561375457600080fd5b600061376285828601613543565b9250506020613773858286016135c1565b9150509250929050565b60006020828403121561378f57600080fd5b600061379d8482850161356d565b91505092915050565b6000602082840312156137b857600080fd5b60006137c684828501613582565b91505092915050565b6000602082840312156137e157600080fd5b60006137ef848285016135c1565b91505092915050565b60006138048383613dac565b905092915050565b613815816147da565b82525050565b613824816147da565b82525050565b600061383582614648565b61383f8185614676565b93508360208202850161385185614623565b8060005b8581101561388d578484038952815161386e85826137f8565b945061387983614669565b925060208a01995050600181019050613855565b50829750879550505050505092915050565b6138a8816147ec565b82525050565b60006138b982614653565b6138c38185614687565b93506138d381856020860161485d565b6138dc81614a29565b840191505092915050565b60006138f28261465e565b6138fc8185614698565b935061390c81856020860161485d565b61391581614a29565b840191505092915050565b600061392b8261465e565b61393581856146a9565b935061394581856020860161485d565b61394e81614a29565b840191505092915050565b60006139648261465e565b61396e81856146ba565b935061397e81856020860161485d565b80840191505092915050565b6000815461399781614890565b6139a181866146a9565b945060018216600081146139bc57600181146139ce57613a01565b60ff1983168652602086019350613a01565b6139d785614633565b60005b838110156139f9578154818901526001820191506020810190506139da565b808801955050505b50505092915050565b6000613a17600b836146ba565b9150613a2282614a3a565b600b82019050919050565b6000613a3a6032836146a9565b9150613a4582614a63565b604082019050919050565b6000613a5d6015836146a9565b9150613a6882614ab2565b602082019050919050565b6000613a806025836146a9565b9150613a8b82614adb565b604082019050919050565b6000613aa3601c836146a9565b9150613aae82614b2a565b602082019050919050565b6000613ac6600e836146ba565b9150613ad182614b53565b600e82019050919050565b6000613ae96024836146a9565b9150613af482614b7c565b604082019050919050565b6000613b0c6019836146a9565b9150613b1782614bcb565b602082019050919050565b6000613b2f602c836146a9565b9150613b3a82614bf4565b604082019050919050565b6000613b526038836146a9565b9150613b5d82614c43565b604082019050919050565b6000613b75602a836146a9565b9150613b8082614c92565b604082019050919050565b6000613b986029836146a9565b9150613ba382614ce1565b604082019050919050565b6000613bbb6004836146ba565b9150613bc682614d30565b600482019050919050565b6000613bde6020836146a9565b9150613be982614d59565b602082019050919050565b6000613c01602c836146a9565b9150613c0c82614d82565b604082019050919050565b6000613c24600a836146ba565b9150613c2f82614dd1565b600a82019050919050565b6000613c476021836146a9565b9150613c5282614dfa565b604082019050919050565b6000613c6a601d836146ba565b9150613c7582614e49565b601d82019050919050565b6000613c8d6069836146ba565b9150613c9882614e72565b606982019050919050565b6000613cb06031836146a9565b9150613cbb82614f0d565b604082019050919050565b6000613cd3600c836146a9565b9150613cde82614f5c565b602082019050919050565b6000613cf6603d836146ba565b9150613d0182614f85565b603d82019050919050565b6000613d19602d836146ba565b9150613d2482614fd4565b602d82019050919050565b600060a0830160008301518482036000860152613d4c82826138e7565b91505060208301518482036020860152613d6682826138e7565b9150506040830151613d7b6040860182613f1a565b506060830151613d8e6060860182613f1a565b506080830151613da16080860182613f1a565b508091505092915050565b600061010083016000830151613dc56000860182613f1a565b5060208301518482036020860152613ddd82826138e7565b91505060408301518482036040860152613df782826138e7565b9150506060830151613e0c6060860182613f1a565b506080830151613e1f6080860182613f1a565b5060a0830151613e3260a0860182613f1a565b5060c0830151613e4560c0860182613f1a565b5060e0830151613e5860e086018261380c565b508091505092915050565b600061010083016000830151613e7c6000860182613f1a565b5060208301518482036020860152613e9482826138e7565b91505060408301518482036040860152613eae82826138e7565b9150506060830151613ec36060860182613f1a565b506080830151613ed66080860182613f1a565b5060a0830151613ee960a0860182613f1a565b5060c0830151613efc60c0860182613f1a565b5060e0830151613f0f60e086018261380c565b508091505092915050565b613f2381614844565b82525050565b613f3281614844565b82525050565b6000613f4382613c17565b9150613f4f8289613959565b9150613f5a82613a0a565b9150613f668288613959565b9150613f7182613c80565b9150613f7d8287613959565b9150613f8882613ce9565b9150613f948286613959565b9150613f9f82613ab9565b9150613fab8285613959565b9150613fb682613d0c565b9150613fc28284613959565b9150613fcd82613bae565b9150819050979650505050505050565b6000613fe882613c5d565b9150613ff48284613959565b915081905092915050565b6000602082019050614014600083018461381b565b92915050565b600060808201905061402f600083018761381b565b61403c602083018661381b565b6140496040830185613f29565b818103606083015261405b81846138ae565b905095945050505050565b600060608201905061407b600083018661381b565b6140886020830185613f29565b6140956040830184613f29565b949350505050565b600060208201905081810360008301526140b7818461382a565b905092915050565b60006020820190506140d4600083018461389f565b92915050565b600060208201905081810360008301526140f48184613920565b905092915050565b600060408201905081810360008301526141168185613920565b9050614125602083018461381b565b9392505050565b600060808201905081810360008301526141468187613920565b9050818103602083015261415a8186613920565b90506141696040830185613f29565b818103606083015261417b8184613920565b905095945050505050565b600060808201905081810360008301526141a08187613920565b905081810360208301526141b48186613920565b90506141c36040830185613f29565b6141d06060830184613f29565b95945050505050565b600060a08201905081810360008301526141f38188613920565b905081810360208301526142078187613920565b90506142166040830186613f29565b6142236060830185613f29565b6142306080830184613f29565b9695505050505050565b600060408201905081810360008301526142548185613920565b90506142636020830184613f29565b9392505050565b600060608201905081810360008301526142848186613920565b90506142936020830185613f29565b6142a06040830184613f29565b949350505050565b600060a08201905081810360008301526142c2818861398a565b90506142d16020830187613f29565b6142de6040830186613f29565b6142eb6060830185613f29565b6142f86080830184613f29565b9695505050505050565b6000602082019050818103600083015261431b81613a2d565b9050919050565b6000602082019050818103600083015261433b81613a50565b9050919050565b6000602082019050818103600083015261435b81613a73565b9050919050565b6000602082019050818103600083015261437b81613a96565b9050919050565b6000602082019050818103600083015261439b81613adc565b9050919050565b600060208201905081810360008301526143bb81613aff565b9050919050565b600060208201905081810360008301526143db81613b22565b9050919050565b600060208201905081810360008301526143fb81613b45565b9050919050565b6000602082019050818103600083015261441b81613b68565b9050919050565b6000602082019050818103600083015261443b81613b8b565b9050919050565b6000602082019050818103600083015261445b81613bd1565b9050919050565b6000602082019050818103600083015261447b81613bf4565b9050919050565b6000602082019050818103600083015261449b81613c3a565b9050919050565b600060208201905081810360008301526144bb81613ca3565b9050919050565b600060208201905081810360008301526144db81613cc6565b9050919050565b600060208201905081810360008301526144fc8184613d2f565b905092915050565b6000602082019050818103600083015261451e8184613e63565b905092915050565b600060208201905061453b6000830184613f29565b92915050565b600061010082019050614557600083018b613f29565b8181036020830152614569818a613920565b9050818103604083015261457d8189613920565b905061458c6060830188613f29565b6145996080830187613f29565b6145a660a0830186613f29565b6145b360c0830185613f29565b6145c060e083018461381b565b9998505050505050505050565b60006145d76145e8565b90506145e382826148c2565b919050565b6000604051905090565b600067ffffffffffffffff82111561460d5761460c6149fa565b5b61461682614a29565b9050602081019050919050565b6000819050602082019050919050565b60008190508160005260206000209050919050565b600081519050919050565b600081519050919050565b600081519050919050565b6000602082019050919050565b600082825260208201905092915050565b600082825260208201905092915050565b600082825260208201905092915050565b600082825260208201905092915050565b600081905092915050565b60006146d082614844565b91506146db83614844565b9250827fffffffffffffffffffffffffffffffffffffffffffffffffffffffffffffffff038211156147105761470f61496d565b5b828201905092915050565b600061472682614844565b915061473183614844565b9250826147415761474061499c565b5b828204905092915050565b600061475782614844565b915061476283614844565b9250817fffffffffffffffffffffffffffffffffffffffffffffffffffffffffffffffff048311821515161561479b5761479a61496d565b5b828202905092915050565b60006147b182614844565b91506147bc83614844565b9250828210156147cf576147ce61496d565b5b828203905092915050565b60006147e582614824565b9050919050565b60008115159050919050565b60007fffffffff0000000000000000000000000000000000000000000000000000000082169050919050565b600073ffffffffffffffffffffffffffffffffffffffff82169050919050565b6000819050919050565b82818337600083830152505050565b60005b8381101561487b578082015181840152602081019050614860565b8381111561488a576000848401525b50505050565b600060028204905060018216806148a857607f821691505b602082108114156148bc576148bb6149cb565b5b50919050565b6148cb82614a29565b810181811067ffffffffffffffff821117156148ea576148e96149fa565b5b80604052505050565b60006148fe82614844565b91507fffffffffffffffffffffffffffffffffffffffffffffffffffffffffffffffff8214156149315761493061496d565b5b600182019050919050565b600061494782614844565b915061495283614844565b9250826149625761496161499c565b5b828206905092915050565b7f4e487b7100000000000000000000000000000000000000000000000000000000600052601160045260246000fd5b7f4e487b7100000000000000000000000000000000000000000000000000000000600052601260045260246000fd5b7f4e487b7100000000000000000000000000000000000000000000000000000000600052602260045260246000fd5b7f4e487b7100000000000000000000000000000000000000000000000000000000600052604160045260246000fd5b6000601f19601f8301169050919050565b7f202d2d204e465420233a20000000000000000000000000000000000000000000600082015250565b7f4552433732313a207472616e7366657220746f206e6f6e20455243373231526560008201527f63656976657220696d706c656d656e7465720000000000000000000000000000602082015250565b7f426f737320697320616c72656164792064656164210000000000000000000000600082015250565b7f4552433732313a207472616e736665722066726f6d20696e636f72726563742060008201527f6f776e6572000000000000000000000000000000000000000000000000000000602082015250565b7f4552433732313a20746f6b656e20616c7265616479206d696e74656400000000600082015250565b7f2c20226d61785f76616c7565223a000000000000000000000000000000000000600082015250565b7f4552433732313a207472616e7366657220746f20746865207a65726f2061646460008201527f7265737300000000000000000000000000000000000000000000000000000000602082015250565b7f4552433732313a20617070726f766520746f2063616c6c657200000000000000600082015250565b7f4552433732313a206f70657261746f7220717565727920666f72206e6f6e657860008201527f697374656e7420746f6b656e0000000000000000000000000000000000000000602082015250565b7f4552433732313a20617070726f76652063616c6c6572206973206e6f74206f7760008201527f6e6572206e6f7220617070726f76656420666f7220616c6c0000000000000000602082015250565b7f4552433732313a2062616c616e636520717565727920666f7220746865207a6560008201527f726f206164647265737300000000000000000000000000000000000000000000602082015250565b7f4552433732313a206f776e657220717565727920666f72206e6f6e657869737460008201527f656e7420746f6b656e0000000000000000000000000000000000000000000000602082015250565b7f7d205d7d00000000000000000000000000000000000000000000000000000000600082015250565b7f4552433732313a206d696e7420746f20746865207a65726f2061646472657373600082015250565b7f4552433732313a20617070726f76656420717565727920666f72206e6f6e657860008201527f697374656e7420746f6b656e0000000000000000000000000000000000000000602082015250565b7f7b226e616d65223a202200000000000000000000000000000000000000000000600082015250565b7f4552433732313a20617070726f76616c20746f2063757272656e74206f776e6560008201527f7200000000000000000000000000000000000000000000000000000000000000602082015250565b7f646174613a6170706c69636174696f6e2f6a736f6e3b6261736536342c000000600082015250565b7f222c20226465736372697074696f6e223a20225468697320697320616e204e4660008201527f542074686174206c6574732070656f706c6520706c617920696e20746865206760208201527f616d65204d657461766572736520536c6179657221222c2022696d616765223a60408201527f2022697066733a2f2f0000000000000000000000000000000000000000000000606082015250565b7f4552433732313a207472616e736665722063616c6c6572206973206e6f74206f60008201527f776e6572206e6f7220617070726f766564000000000000000000000000000000602082015250565b7f596f752772652064656164210000000000000000000000000000000000000000600082015250565b7f222c202261747472696275746573223a205b207b202274726169745f7479706560008201527f223a20224865616c746820506f696e7473222c202276616c7565223a20000000602082015250565b7f7d2c207b202274726169745f74797065223a202241747461636b2044616d616760008201527f65222c202276616c7565223a2000000000000000000000000000000000000000602082015250565b61502c816147da565b811461503757600080fd5b50565b615043816147ec565b811461504e57600080fd5b50565b61505a816147f8565b811461506557600080fd5b50565b61507181614844565b811461507c57600080fd5b5056fe506c617965722061747461636b656420626f73732e204e657720626f73732068703a2025734142434445464748494a4b4c4d4e4f505152535455565758595a6162636465666768696a6b6c6d6e6f707172737475767778797a303132333435363738392b2f426f73732061747461636b656420706c617965722e204e657720706c617965722068703a2025730a4d696e746564204e465420772f20746f6b656e496420257320616e6420636861726163746572496e6465782025730a506c6179657220772f206368617261637465722025732061626f757420746f2061747461636b2e2048617320257320485020616e64202573204144a2646970667358221220bfdc945a0ad20acc08bee0dc0ecc12aba167dcdcda9940b5cd502550087100b364736f6c63430008040033446f6e6520696e697469616c697a696e6720257320772f2048502025732c20696d67202573446f6e6520696e697469616c697a696e6720626f737320257320772f2048502025732c20696d67202573",
  "linkReferences": {},
  "deployedLinkReferences": {}
}